{
  "_format": "hh-sol-artifact-1",
  "contractName": "MyEpicNFT",
  "sourceName": "contracts/MyEpicNFT.sol",
  "abi": [
    {
      "inputs": [],
      "stateMutability": "nonpayable",
      "type": "constructor"
    },
    {
      "anonymous": false,
      "inputs": [
        {
          "indexed": true,
          "internalType": "address",
          "name": "owner",
          "type": "address"
        },
        {
          "indexed": true,
          "internalType": "address",
          "name": "approved",
          "type": "address"
        },
        {
          "indexed": true,
          "internalType": "uint256",
          "name": "tokenId",
          "type": "uint256"
        }
      ],
      "name": "Approval",
      "type": "event"
    },
    {
      "anonymous": false,
      "inputs": [
        {
          "indexed": true,
          "internalType": "address",
          "name": "owner",
          "type": "address"
        },
        {
          "indexed": true,
          "internalType": "address",
          "name": "operator",
          "type": "address"
        },
        {
          "indexed": false,
          "internalType": "bool",
          "name": "approved",
          "type": "bool"
        }
      ],
      "name": "ApprovalForAll",
      "type": "event"
    },
    {
      "anonymous": false,
      "inputs": [
        {
          "indexed": false,
          "internalType": "address",
          "name": "sender",
          "type": "address"
        },
        {
          "indexed": false,
          "internalType": "uint256",
          "name": "tokenId",
          "type": "uint256"
        }
      ],
      "name": "NewEpicNFTMinted",
      "type": "event"
    },
    {
      "anonymous": false,
      "inputs": [
        {
          "indexed": true,
          "internalType": "address",
          "name": "from",
          "type": "address"
        },
        {
          "indexed": true,
          "internalType": "address",
          "name": "to",
          "type": "address"
        },
        {
          "indexed": true,
          "internalType": "uint256",
          "name": "tokenId",
          "type": "uint256"
        }
      ],
      "name": "Transfer",
      "type": "event"
    },
    {
      "inputs": [
        {
          "internalType": "address",
          "name": "to",
          "type": "address"
        },
        {
          "internalType": "uint256",
          "name": "tokenId",
          "type": "uint256"
        }
      ],
      "name": "approve",
      "outputs": [],
      "stateMutability": "nonpayable",
      "type": "function"
    },
    {
      "inputs": [
        {
          "internalType": "address",
          "name": "owner",
          "type": "address"
        }
      ],
      "name": "balanceOf",
      "outputs": [
        {
          "internalType": "uint256",
          "name": "",
          "type": "uint256"
        }
      ],
      "stateMutability": "view",
      "type": "function"
    },
    {
      "inputs": [
        {
          "internalType": "uint256",
          "name": "tokenId",
          "type": "uint256"
        }
      ],
      "name": "getApproved",
      "outputs": [
        {
          "internalType": "address",
          "name": "",
          "type": "address"
        }
      ],
      "stateMutability": "view",
      "type": "function"
    },
    {
      "inputs": [
        {
          "internalType": "address",
          "name": "owner",
          "type": "address"
        },
        {
          "internalType": "address",
          "name": "operator",
          "type": "address"
        }
      ],
      "name": "isApprovedForAll",
      "outputs": [
        {
          "internalType": "bool",
          "name": "",
          "type": "bool"
        }
      ],
      "stateMutability": "view",
      "type": "function"
    },
    {
      "inputs": [],
      "name": "makeNecromancerNFT",
      "outputs": [],
      "stateMutability": "nonpayable",
      "type": "function"
    },
    {
      "inputs": [],
      "name": "makeWarlockNFT",
      "outputs": [],
      "stateMutability": "nonpayable",
      "type": "function"
    },
    {
      "inputs": [],
      "name": "makeWizardNFT",
      "outputs": [],
      "stateMutability": "nonpayable",
      "type": "function"
    },
    {
      "inputs": [],
      "name": "name",
      "outputs": [
        {
          "internalType": "string",
          "name": "",
          "type": "string"
        }
      ],
      "stateMutability": "view",
      "type": "function"
    },
    {
      "inputs": [
        {
          "internalType": "uint256",
          "name": "tokenId",
          "type": "uint256"
        }
      ],
      "name": "ownerOf",
      "outputs": [
        {
          "internalType": "address",
          "name": "",
          "type": "address"
        }
      ],
      "stateMutability": "view",
      "type": "function"
    },
    {
      "inputs": [
        {
          "internalType": "address",
          "name": "from",
          "type": "address"
        },
        {
          "internalType": "address",
          "name": "to",
          "type": "address"
        },
        {
          "internalType": "uint256",
          "name": "tokenId",
          "type": "uint256"
        }
      ],
      "name": "safeTransferFrom",
      "outputs": [],
      "stateMutability": "nonpayable",
      "type": "function"
    },
    {
      "inputs": [
        {
          "internalType": "address",
          "name": "from",
          "type": "address"
        },
        {
          "internalType": "address",
          "name": "to",
          "type": "address"
        },
        {
          "internalType": "uint256",
          "name": "tokenId",
          "type": "uint256"
        },
        {
          "internalType": "bytes",
          "name": "_data",
          "type": "bytes"
        }
      ],
      "name": "safeTransferFrom",
      "outputs": [],
      "stateMutability": "nonpayable",
      "type": "function"
    },
    {
      "inputs": [
        {
          "internalType": "address",
          "name": "operator",
          "type": "address"
        },
        {
          "internalType": "bool",
          "name": "approved",
          "type": "bool"
        }
      ],
      "name": "setApprovalForAll",
      "outputs": [],
      "stateMutability": "nonpayable",
      "type": "function"
    },
    {
      "inputs": [
        {
          "internalType": "bytes4",
          "name": "interfaceId",
          "type": "bytes4"
        }
      ],
      "name": "supportsInterface",
      "outputs": [
        {
          "internalType": "bool",
          "name": "",
          "type": "bool"
        }
      ],
      "stateMutability": "view",
      "type": "function"
    },
    {
      "inputs": [],
      "name": "symbol",
      "outputs": [
        {
          "internalType": "string",
          "name": "",
          "type": "string"
        }
      ],
      "stateMutability": "view",
      "type": "function"
    },
    {
      "inputs": [
        {
          "internalType": "uint256",
          "name": "tokenId",
          "type": "uint256"
        }
      ],
      "name": "tokenURI",
      "outputs": [
        {
          "internalType": "string",
          "name": "",
          "type": "string"
        }
      ],
      "stateMutability": "view",
      "type": "function"
    },
    {
      "inputs": [
        {
          "internalType": "address",
          "name": "from",
          "type": "address"
        },
        {
          "internalType": "address",
          "name": "to",
          "type": "address"
        },
        {
          "internalType": "uint256",
          "name": "tokenId",
          "type": "uint256"
        }
      ],
      "name": "transferFrom",
      "outputs": [],
      "stateMutability": "nonpayable",
      "type": "function"
    }
  ],
  "bytecode": "0x60806040526040518060800160405280604051806080016040528060438152602001620039a460439139815260200160405180608001604052806043815260200162003961604391398152602001604051806080016040528060438152602001620038db604391398152602001604051806080016040528060438152602001620039e76043913981525060089060046200009b92919062000378565b50604051806060016040528060405180608001604052806043815260200162003a6d60439139815260200160405180608001604052806043815260200162003ab06043913981526020016040518060800160405280604381526020016200391e60439139815250600990600362000114929190620003df565b50604051806080016040528060405180608001604052806043815260200162003af36043913981526020016040518060800160405280604381526020016200389860439139815260200160405180608001604052806043815260200162003a2a60439139815260200160405180608001604052806043815260200162003b3660439139815250600a906004620001ac92919062000378565b50348015620001ba57600080fd5b506040518060400160405280600881526020017f4578556d627261650000000000000000000000000000000000000000000000008152506040518060400160405280600481526020017f4558554d0000000000000000000000000000000000000000000000000000000081525081600090805190602001906200023f92919062000446565b5080600190805190602001906200025892919062000446565b505050620002a66040518060400160405280602081526020017f4558554d20636172647320636f6e747261637420636f6e73747275637465642e815250620002ac60201b6200122b1760201c565b62000691565b6200034c81604051602401620002c39190620005a5565b6040516020818303038152906040527f41304fac000000000000000000000000000000000000000000000000000000007bffffffffffffffffffffffffffffffffffffffffffffffffffffffff19166020820180517bffffffffffffffffffffffffffffffffffffffffffffffffffffffff83818316178352505050506200034f60201b60201c565b50565b60008151905060006a636f6e736f6c652e6c6f679050602083016000808483855afa5050505050565b828054828255906000526020600020908101928215620003cc579160200282015b82811115620003cb578251829080519060200190620003ba92919062000446565b509160200191906001019062000399565b5b509050620003db9190620004d7565b5090565b82805482825590600052602060002090810192821562000433579160200282015b82811115620004325782518290805190602001906200042192919062000446565b509160200191906001019062000400565b5b509050620004429190620004d7565b5090565b82805462000454906200061b565b90600052602060002090601f016020900481019282620004785760008555620004c4565b82601f106200049357805160ff1916838001178555620004c4565b82800160010185558215620004c4579182015b82811115620004c3578251825591602001919060010190620004a6565b5b509050620004d39190620004ff565b5090565b5b80821115620004fb5760008181620004f191906200051e565b50600101620004d8565b5090565b5b808211156200051a57600081600090555060010162000500565b5090565b5080546200052c906200061b565b6000825580601f1062000540575062000561565b601f016020900490600052602060002090810190620005609190620004ff565b5b50565b60006200057182620005c9565b6200057d8185620005d4565b93506200058f818560208601620005e5565b6200059a8162000680565b840191505092915050565b60006020820190508181036000830152620005c1818462000564565b905092915050565b600081519050919050565b600082825260208201905092915050565b60005b8381101562000605578082015181840152602081019050620005e8565b8381111562000615576000848401525b50505050565b600060028204905060018216806200063457607f821691505b602082108114156200064b576200064a62000651565b5b50919050565b7f4e487b7100000000000000000000000000000000000000000000000000000000600052602260045260246000fd5b6000601f19601f8301169050919050565b6131f780620006a16000396000f3fe608060405234801561001057600080fd5b50600436106101005760003560e01c806370a0823111610097578063c87b56dd11610066578063c87b56dd14610297578063cdaa3bd8146102c7578063e985e9c5146102d1578063f49bff3b1461030157610100565b806370a082311461021157806395d89b4114610241578063a22cb4651461025f578063b88d4fde1461027b57610100565b806317b14218116100d357806317b142181461019f57806323b872dd146101a957806342842e0e146101c55780636352211e146101e157610100565b806301ffc9a71461010557806306fdde0314610135578063081812fc14610153578063095ea7b314610183575b600080fd5b61011f600480360381019061011a91906122cd565b61030b565b60405161012c9190612aba565b60405180910390f35b61013d6103ed565b60405161014a9190612ad5565b60405180910390f35b61016d6004803603810190610168919061231f565b61047f565b60405161017a9190612a2a565b60405180910390f35b61019d60048036038101906101989190612291565b610504565b005b6101a761061c565b005b6101c360048036038101906101be919061218b565b61080a565b005b6101df60048036038101906101da919061218b565b61086a565b005b6101fb60048036038101906101f6919061231f565b61088a565b6040516102089190612a2a565b60405180910390f35b61022b60048036038101906102269190612126565b61093c565b6040516102389190612d35565b60405180910390f35b6102496109f4565b6040516102569190612ad5565b60405180910390f35b61027960048036038101906102749190612255565b610a86565b005b610295600480360381019061029091906121da565b610c07565b005b6102b160048036038101906102ac919061231f565b610c69565b6040516102be9190612ad5565b60405180910390f35b6102cf610dbb565b005b6102eb60048036038101906102e6919061214f565b610fa9565b6040516102f89190612aba565b60405180910390f35b61030961103d565b005b60007f80ac58cd000000000000000000000000000000000000000000000000000000007bffffffffffffffffffffffffffffffffffffffffffffffffffffffff1916827bffffffffffffffffffffffffffffffffffffffffffffffffffffffff191614806103d657507f5b5e139f000000000000000000000000000000000000000000000000000000007bffffffffffffffffffffffffffffffffffffffffffffffffffffffff1916827bffffffffffffffffffffffffffffffffffffffffffffffffffffffff1916145b806103e657506103e5826112c4565b5b9050919050565b6060600080546103fc90612f65565b80601f016020809104026020016040519081016040528092919081815260200182805461042890612f65565b80156104755780601f1061044a57610100808354040283529160200191610475565b820191906000526020600020905b81548152906001019060200180831161045857829003601f168201915b5050505050905090565b600061048a8261132e565b6104c9576040517f08c379a00000000000000000000000000000000000000000000000000000000081526004016104c090612c95565b60405180910390fd5b6004600083815260200190815260200160002060009054906101000a900473ffffffffffffffffffffffffffffffffffffffff169050919050565b600061050f8261088a565b90508073ffffffffffffffffffffffffffffffffffffffff168373ffffffffffffffffffffffffffffffffffffffff161415610580576040517f08c379a000000000000000000000000000000000000000000000000000000000815260040161057790612cf5565b60405180910390fd5b8073ffffffffffffffffffffffffffffffffffffffff1661059f61139a565b73ffffffffffffffffffffffffffffffffffffffff1614806105ce57506105cd816105c861139a565b610fa9565b5b61060d576040517f08c379a000000000000000000000000000000000000000000000000000000000815260040161060490612bd5565b60405180910390fd5b61061783836113a2565b505050565b6000610628600761145b565b90506000600860048361063b9190612fe0565b81548110610672577f4e487b7100000000000000000000000000000000000000000000000000000000600052603260045260246000fd5b90600052602060002001805461068790612f65565b80601f01602080910402602001604051908101604052809291908181526020018280546106b390612f65565b80156107005780601f106106d557610100808354040283529160200191610700565b820191906000526020600020905b8154815290600101906020018083116106e357829003601f168201915b505050505090506107456040518060400160405280601581526020017f0a2d2d2d2d2d2d2d2d2d2d2d2d2d2d2d2d2d2d2d2d000000000000000000000081525061122b565b61074e8161122b565b61078c6040518060400160405280601581526020017f2d2d2d2d2d2d2d2d2d2d2d2d2d2d2d2d2d2d2d2d0a000000000000000000000081525061122b565b6107963383611469565b6107a08282611487565b6107aa60076114fb565b6107cd6040518060600160405280602b8152602001613197602b91398333611511565b7febb98688741ffa4c7589bf325de30cf7becb63de567842e1ccdb6cb949fdc82c33836040516107fe929190612a91565b60405180910390a15050565b61081b61081561139a565b826115b0565b61085a576040517f08c379a000000000000000000000000000000000000000000000000000000000815260040161085190612d15565b60405180910390fd5b61086583838361168e565b505050565b61088583838360405180602001604052806000815250610c07565b505050565b6000806002600084815260200190815260200160002060009054906101000a900473ffffffffffffffffffffffffffffffffffffffff169050600073ffffffffffffffffffffffffffffffffffffffff168173ffffffffffffffffffffffffffffffffffffffff161415610933576040517f08c379a000000000000000000000000000000000000000000000000000000000815260040161092a90612c15565b60405180910390fd5b80915050919050565b60008073ffffffffffffffffffffffffffffffffffffffff168273ffffffffffffffffffffffffffffffffffffffff1614156109ad576040517f08c379a00000000000000000000000000000000000000000000000000000000081526004016109a490612bf5565b60405180910390fd5b600360008373ffffffffffffffffffffffffffffffffffffffff1673ffffffffffffffffffffffffffffffffffffffff168152602001908152602001600020549050919050565b606060018054610a0390612f65565b80601f0160208091040260200160405190810160405280929190818152602001828054610a2f90612f65565b8015610a7c5780601f10610a5157610100808354040283529160200191610a7c565b820191906000526020600020905b815481529060010190602001808311610a5f57829003601f168201915b5050505050905090565b610a8e61139a565b73ffffffffffffffffffffffffffffffffffffffff168273ffffffffffffffffffffffffffffffffffffffff161415610afc576040517f08c379a0000000000000000000000000000000000000000000000000000000008152600401610af390612b95565b60405180910390fd5b8060056000610b0961139a565b73ffffffffffffffffffffffffffffffffffffffff1673ffffffffffffffffffffffffffffffffffffffff16815260200190815260200160002060008473ffffffffffffffffffffffffffffffffffffffff1673ffffffffffffffffffffffffffffffffffffffff16815260200190815260200160002060006101000a81548160ff0219169083151502179055508173ffffffffffffffffffffffffffffffffffffffff16610bb661139a565b73ffffffffffffffffffffffffffffffffffffffff167f17307eab39ab6107e8899845ad3d59bd9653f200f220920489ca2b5937696c3183604051610bfb9190612aba565b60405180910390a35050565b610c18610c1261139a565b836115b0565b610c57576040517f08c379a0000000000000000000000000000000000000000000000000000000008152600401610c4e90612d15565b60405180910390fd5b610c63848484846118ea565b50505050565b6060610c748261132e565b610cb3576040517f08c379a0000000000000000000000000000000000000000000000000000000008152600401610caa90612c75565b60405180910390fd5b6000600660008481526020019081526020016000208054610cd390612f65565b80601f0160208091040260200160405190810160405280929190818152602001828054610cff90612f65565b8015610d4c5780601f10610d2157610100808354040283529160200191610d4c565b820191906000526020600020905b815481529060010190602001808311610d2f57829003601f168201915b505050505090506000610d5d611946565b9050600081511415610d73578192505050610db6565b600082511115610da8578082604051602001610d90929190612a06565b60405160208183030381529060405292505050610db6565b610db18461195d565b925050505b919050565b6000610dc7600761145b565b90506000600a600483610dda9190612fe0565b81548110610e11577f4e487b7100000000000000000000000000000000000000000000000000000000600052603260045260246000fd5b906000526020600020018054610e2690612f65565b80601f0160208091040260200160405190810160405280929190818152602001828054610e5290612f65565b8015610e9f5780601f10610e7457610100808354040283529160200191610e9f565b820191906000526020600020905b815481529060010190602001808311610e8257829003601f168201915b50505050509050610ee46040518060400160405280601581526020017f0a2d2d2d2d2d2d2d2d2d2d2d2d2d2d2d2d2d2d2d2d000000000000000000000081525061122b565b610eed8161122b565b610f2b6040518060400160405280601581526020017f2d2d2d2d2d2d2d2d2d2d2d2d2d2d2d2d2d2d2d2d0a000000000000000000000081525061122b565b610f353383611469565b610f3f8282611487565b610f4960076114fb565b610f6c604051806060016040528060308152602001613167603091398333611511565b7febb98688741ffa4c7589bf325de30cf7becb63de567842e1ccdb6cb949fdc82c3383604051610f9d929190612a91565b60405180910390a15050565b6000600560008473ffffffffffffffffffffffffffffffffffffffff1673ffffffffffffffffffffffffffffffffffffffff16815260200190815260200160002060008373ffffffffffffffffffffffffffffffffffffffff1673ffffffffffffffffffffffffffffffffffffffff16815260200190815260200160002060009054906101000a900460ff16905092915050565b6000611049600761145b565b90506000600960038361105c9190612fe0565b81548110611093577f4e487b7100000000000000000000000000000000000000000000000000000000600052603260045260246000fd5b9060005260206000200180546110a890612f65565b80601f01602080910402602001604051908101604052809291908181526020018280546110d490612f65565b80156111215780601f106110f657610100808354040283529160200191611121565b820191906000526020600020905b81548152906001019060200180831161110457829003601f168201915b505050505090506111666040518060400160405280601581526020017f0a2d2d2d2d2d2d2d2d2d2d2d2d2d2d2d2d2d2d2d2d000000000000000000000081525061122b565b61116f8161122b565b6111ad6040518060400160405280601581526020017f2d2d2d2d2d2d2d2d2d2d2d2d2d2d2d2d2d2d2d2d0a000000000000000000000081525061122b565b6111b73383611469565b6111c18282611487565b6111cb60076114fb565b6111ee6040518060600160405280602c815260200161313b602c91398333611511565b7febb98688741ffa4c7589bf325de30cf7becb63de567842e1ccdb6cb949fdc82c338360405161121f929190612a91565b60405180910390a15050565b6112c18160405160240161123f9190612ad5565b6040516020818303038152906040527f41304fac000000000000000000000000000000000000000000000000000000007bffffffffffffffffffffffffffffffffffffffffffffffffffffffff19166020820180517bffffffffffffffffffffffffffffffffffffffffffffffffffffffff8381831617835250505050611a04565b50565b60007f01ffc9a7000000000000000000000000000000000000000000000000000000007bffffffffffffffffffffffffffffffffffffffffffffffffffffffff1916827bffffffffffffffffffffffffffffffffffffffffffffffffffffffff1916149050919050565b60008073ffffffffffffffffffffffffffffffffffffffff166002600084815260200190815260200160002060009054906101000a900473ffffffffffffffffffffffffffffffffffffffff1673ffffffffffffffffffffffffffffffffffffffff1614159050919050565b600033905090565b816004600083815260200190815260200160002060006101000a81548173ffffffffffffffffffffffffffffffffffffffff021916908373ffffffffffffffffffffffffffffffffffffffff160217905550808273ffffffffffffffffffffffffffffffffffffffff166114158361088a565b73ffffffffffffffffffffffffffffffffffffffff167f8c5be1e5ebec7d5bd14f71427d1e84f3dd0314c0f7b2291e5b200ac8c7c3b92560405160405180910390a45050565b600081600001549050919050565b611483828260405180602001604052806000815250611a2d565b5050565b6114908261132e565b6114cf576040517f08c379a00000000000000000000000000000000000000000000000000000000081526004016114c690612c35565b60405180910390fd5b806006600084815260200190815260200160002090805190602001906114f6929190611fb2565b505050565b6001816000016000828254019250508190555050565b6115ab83838360405160240161152993929190612af7565b6040516020818303038152906040527fe3849f79000000000000000000000000000000000000000000000000000000007bffffffffffffffffffffffffffffffffffffffffffffffffffffffff19166020820180517bffffffffffffffffffffffffffffffffffffffffffffffffffffffff8381831617835250505050611a04565b505050565b60006115bb8261132e565b6115fa576040517f08c379a00000000000000000000000000000000000000000000000000000000081526004016115f190612bb5565b60405180910390fd5b60006116058361088a565b90508073ffffffffffffffffffffffffffffffffffffffff168473ffffffffffffffffffffffffffffffffffffffff16148061167457508373ffffffffffffffffffffffffffffffffffffffff1661165c8461047f565b73ffffffffffffffffffffffffffffffffffffffff16145b8061168557506116848185610fa9565b5b91505092915050565b8273ffffffffffffffffffffffffffffffffffffffff166116ae8261088a565b73ffffffffffffffffffffffffffffffffffffffff1614611704576040517f08c379a00000000000000000000000000000000000000000000000000000000081526004016116fb90612cb5565b60405180910390fd5b600073ffffffffffffffffffffffffffffffffffffffff168273ffffffffffffffffffffffffffffffffffffffff161415611774576040517f08c379a000000000000000000000000000000000000000000000000000000000815260040161176b90612b75565b60405180910390fd5b61177f838383611a88565b61178a6000826113a2565b6001600360008573ffffffffffffffffffffffffffffffffffffffff1673ffffffffffffffffffffffffffffffffffffffff16815260200190815260200160002060008282546117da9190612e7b565b925050819055506001600360008473ffffffffffffffffffffffffffffffffffffffff1673ffffffffffffffffffffffffffffffffffffffff16815260200190815260200160002060008282546118319190612df4565b92505081905550816002600083815260200190815260200160002060006101000a81548173ffffffffffffffffffffffffffffffffffffffff021916908373ffffffffffffffffffffffffffffffffffffffff160217905550808273ffffffffffffffffffffffffffffffffffffffff168473ffffffffffffffffffffffffffffffffffffffff167fddf252ad1be2c89b69c2b068fc378daa952ba7f163c4a11628f55a4df523b3ef60405160405180910390a4505050565b6118f584848461168e565b61190184848484611a8d565b611940576040517f08c379a000000000000000000000000000000000000000000000000000000000815260040161193790612b35565b60405180910390fd5b50505050565b606060405180602001604052806000815250905090565b60606119688261132e565b6119a7576040517f08c379a000000000000000000000000000000000000000000000000000000000815260040161199e90612cd5565b60405180910390fd5b60006119b1611946565b905060008151116119d157604051806020016040528060008152506119fc565b806119db84611c24565b6040516020016119ec929190612a06565b6040516020818303038152906040525b915050919050565b60008151905060006a636f6e736f6c652e6c6f679050602083016000808483855afa5050505050565b611a378383611dd1565b611a446000848484611a8d565b611a83576040517f08c379a0000000000000000000000000000000000000000000000000000000008152600401611a7a90612b35565b60405180910390fd5b505050565b505050565b6000611aae8473ffffffffffffffffffffffffffffffffffffffff16611f9f565b15611c17578373ffffffffffffffffffffffffffffffffffffffff1663150b7a02611ad761139a565b8786866040518563ffffffff1660e01b8152600401611af99493929190612a45565b602060405180830381600087803b158015611b1357600080fd5b505af1925050508015611b4457506040513d601f19601f82011682018060405250810190611b4191906122f6565b60015b611bc7573d8060008114611b74576040519150601f19603f3d011682016040523d82523d6000602084013e611b79565b606091505b50600081511415611bbf576040517f08c379a0000000000000000000000000000000000000000000000000000000008152600401611bb690612b35565b60405180910390fd5b805181602001fd5b63150b7a0260e01b7bffffffffffffffffffffffffffffffffffffffffffffffffffffffff1916817bffffffffffffffffffffffffffffffffffffffffffffffffffffffff191614915050611c1c565b600190505b949350505050565b60606000821415611c6c576040518060400160405280600181526020017f30000000000000000000000000000000000000000000000000000000000000008152509050611dcc565b600082905060005b60008214611c9e578080611c8790612f97565b915050600a82611c979190612e4a565b9150611c74565b60008167ffffffffffffffff811115611ce0577f4e487b7100000000000000000000000000000000000000000000000000000000600052604160045260246000fd5b6040519080825280601f01601f191660200182016040528015611d125781602001600182028036833780820191505090505b5090505b60008514611dc557600182611d2b9190612e7b565b9150600a85611d3a9190612fe0565b6030611d469190612df4565b60f81b818381518110611d82577f4e487b7100000000000000000000000000000000000000000000000000000000600052603260045260246000fd5b60200101907effffffffffffffffffffffffffffffffffffffffffffffffffffffffffffff1916908160001a905350600a85611dbe9190612e4a565b9450611d16565b8093505050505b919050565b600073ffffffffffffffffffffffffffffffffffffffff168273ffffffffffffffffffffffffffffffffffffffff161415611e41576040517f08c379a0000000000000000000000000000000000000000000000000000000008152600401611e3890612c55565b60405180910390fd5b611e4a8161132e565b15611e8a576040517f08c379a0000000000000000000000000000000000000000000000000000000008152600401611e8190612b55565b60405180910390fd5b611e9660008383611a88565b6001600360008473ffffffffffffffffffffffffffffffffffffffff1673ffffffffffffffffffffffffffffffffffffffff1681526020019081526020016000206000828254611ee69190612df4565b92505081905550816002600083815260200190815260200160002060006101000a81548173ffffffffffffffffffffffffffffffffffffffff021916908373ffffffffffffffffffffffffffffffffffffffff160217905550808273ffffffffffffffffffffffffffffffffffffffff16600073ffffffffffffffffffffffffffffffffffffffff167fddf252ad1be2c89b69c2b068fc378daa952ba7f163c4a11628f55a4df523b3ef60405160405180910390a45050565b600080823b905060008111915050919050565b828054611fbe90612f65565b90600052602060002090601f016020900481019282611fe05760008555612027565b82601f10611ff957805160ff1916838001178555612027565b82800160010185558215612027579182015b8281111561202657825182559160200191906001019061200b565b5b5090506120349190612038565b5090565b5b80821115612051576000816000905550600101612039565b5090565b600061206861206384612d81565b612d50565b90508281526020810184848401111561208057600080fd5b61208b848285612f23565b509392505050565b6000813590506120a2816130de565b92915050565b6000813590506120b7816130f5565b92915050565b6000813590506120cc8161310c565b92915050565b6000815190506120e18161310c565b92915050565b600082601f8301126120f857600080fd5b8135612108848260208601612055565b91505092915050565b60008135905061212081613123565b92915050565b60006020828403121561213857600080fd5b600061214684828501612093565b91505092915050565b6000806040838503121561216257600080fd5b600061217085828601612093565b925050602061218185828601612093565b9150509250929050565b6000806000606084860312156121a057600080fd5b60006121ae86828701612093565b93505060206121bf86828701612093565b92505060406121d086828701612111565b9150509250925092565b600080600080608085870312156121f057600080fd5b60006121fe87828801612093565b945050602061220f87828801612093565b935050604061222087828801612111565b925050606085013567ffffffffffffffff81111561223d57600080fd5b612249878288016120e7565b91505092959194509250565b6000806040838503121561226857600080fd5b600061227685828601612093565b9250506020612287858286016120a8565b9150509250929050565b600080604083850312156122a457600080fd5b60006122b285828601612093565b92505060206122c385828601612111565b9150509250929050565b6000602082840312156122df57600080fd5b60006122ed848285016120bd565b91505092915050565b60006020828403121561230857600080fd5b6000612316848285016120d2565b91505092915050565b60006020828403121561233157600080fd5b600061233f84828501612111565b91505092915050565b61235181612eaf565b82525050565b61236081612ec1565b82525050565b600061237182612db1565b61237b8185612dc7565b935061238b818560208601612f32565b612394816130cd565b840191505092915050565b60006123aa82612dbc565b6123b48185612dd8565b93506123c4818560208601612f32565b6123cd816130cd565b840191505092915050565b60006123e382612dbc565b6123ed8185612de9565b93506123fd818560208601612f32565b80840191505092915050565b6000612416603283612dd8565b91507f4552433732313a207472616e7366657220746f206e6f6e20455243373231526560008301527f63656976657220696d706c656d656e74657200000000000000000000000000006020830152604082019050919050565b600061247c601c83612dd8565b91507f4552433732313a20746f6b656e20616c7265616479206d696e746564000000006000830152602082019050919050565b60006124bc602483612dd8565b91507f4552433732313a207472616e7366657220746f20746865207a65726f2061646460008301527f72657373000000000000000000000000000000000000000000000000000000006020830152604082019050919050565b6000612522601983612dd8565b91507f4552433732313a20617070726f766520746f2063616c6c6572000000000000006000830152602082019050919050565b6000612562602c83612dd8565b91507f4552433732313a206f70657261746f7220717565727920666f72206e6f6e657860008301527f697374656e7420746f6b656e00000000000000000000000000000000000000006020830152604082019050919050565b60006125c8603883612dd8565b91507f4552433732313a20617070726f76652063616c6c6572206973206e6f74206f7760008301527f6e6572206e6f7220617070726f76656420666f7220616c6c00000000000000006020830152604082019050919050565b600061262e602a83612dd8565b91507f4552433732313a2062616c616e636520717565727920666f7220746865207a6560008301527f726f2061646472657373000000000000000000000000000000000000000000006020830152604082019050919050565b6000612694602983612dd8565b91507f4552433732313a206f776e657220717565727920666f72206e6f6e657869737460008301527f656e7420746f6b656e00000000000000000000000000000000000000000000006020830152604082019050919050565b60006126fa602e83612dd8565b91507f45524337323155524953746f726167653a2055524920736574206f66206e6f6e60008301527f6578697374656e7420746f6b656e0000000000000000000000000000000000006020830152604082019050919050565b6000612760602083612dd8565b91507f4552433732313a206d696e7420746f20746865207a65726f20616464726573736000830152602082019050919050565b60006127a0603183612dd8565b91507f45524337323155524953746f726167653a2055524920717565727920666f722060008301527f6e6f6e6578697374656e7420746f6b656e0000000000000000000000000000006020830152604082019050919050565b6000612806602c83612dd8565b91507f4552433732313a20617070726f76656420717565727920666f72206e6f6e657860008301527f697374656e7420746f6b656e00000000000000000000000000000000000000006020830152604082019050919050565b600061286c602983612dd8565b91507f4552433732313a207472616e73666572206f6620746f6b656e2074686174206960008301527f73206e6f74206f776e00000000000000000000000000000000000000000000006020830152604082019050919050565b60006128d2602f83612dd8565b91507f4552433732314d657461646174613a2055524920717565727920666f72206e6f60008301527f6e6578697374656e7420746f6b656e00000000000000000000000000000000006020830152604082019050919050565b6000612938602183612dd8565b91507f4552433732313a20617070726f76616c20746f2063757272656e74206f776e6560008301527f72000000000000000000000000000000000000000000000000000000000000006020830152604082019050919050565b600061299e603183612dd8565b91507f4552433732313a207472616e736665722063616c6c6572206973206e6f74206f60008301527f776e6572206e6f7220617070726f7665640000000000000000000000000000006020830152604082019050919050565b612a0081612f19565b82525050565b6000612a1282856123d8565b9150612a1e82846123d8565b91508190509392505050565b6000602082019050612a3f6000830184612348565b92915050565b6000608082019050612a5a6000830187612348565b612a676020830186612348565b612a7460408301856129f7565b8181036060830152612a868184612366565b905095945050505050565b6000604082019050612aa66000830185612348565b612ab360208301846129f7565b9392505050565b6000602082019050612acf6000830184612357565b92915050565b60006020820190508181036000830152612aef818461239f565b905092915050565b60006060820190508181036000830152612b11818661239f565b9050612b2060208301856129f7565b612b2d6040830184612348565b949350505050565b60006020820190508181036000830152612b4e81612409565b9050919050565b60006020820190508181036000830152612b6e8161246f565b9050919050565b60006020820190508181036000830152612b8e816124af565b9050919050565b60006020820190508181036000830152612bae81612515565b9050919050565b60006020820190508181036000830152612bce81612555565b9050919050565b60006020820190508181036000830152612bee816125bb565b9050919050565b60006020820190508181036000830152612c0e81612621565b9050919050565b60006020820190508181036000830152612c2e81612687565b9050919050565b60006020820190508181036000830152612c4e816126ed565b9050919050565b60006020820190508181036000830152612c6e81612753565b9050919050565b60006020820190508181036000830152612c8e81612793565b9050919050565b60006020820190508181036000830152612cae816127f9565b9050919050565b60006020820190508181036000830152612cce8161285f565b9050919050565b60006020820190508181036000830152612cee816128c5565b9050919050565b60006020820190508181036000830152612d0e8161292b565b9050919050565b60006020820190508181036000830152612d2e81612991565b9050919050565b6000602082019050612d4a60008301846129f7565b92915050565b6000604051905081810181811067ffffffffffffffff82111715612d7757612d7661309e565b5b8060405250919050565b600067ffffffffffffffff821115612d9c57612d9b61309e565b5b601f19601f8301169050602081019050919050565b600081519050919050565b600081519050919050565b600082825260208201905092915050565b600082825260208201905092915050565b600081905092915050565b6000612dff82612f19565b9150612e0a83612f19565b9250827fffffffffffffffffffffffffffffffffffffffffffffffffffffffffffffffff03821115612e3f57612e3e613011565b5b828201905092915050565b6000612e5582612f19565b9150612e6083612f19565b925082612e7057612e6f613040565b5b828204905092915050565b6000612e8682612f19565b9150612e9183612f19565b925082821015612ea457612ea3613011565b5b828203905092915050565b6000612eba82612ef9565b9050919050565b60008115159050919050565b60007fffffffff0000000000000000000000000000000000000000000000000000000082169050919050565b600073ffffffffffffffffffffffffffffffffffffffff82169050919050565b6000819050919050565b82818337600083830152505050565b60005b83811015612f50578082015181840152602081019050612f35565b83811115612f5f576000848401525b50505050565b60006002820490506001821680612f7d57607f821691505b60208210811415612f9157612f9061306f565b5b50919050565b6000612fa282612f19565b91507fffffffffffffffffffffffffffffffffffffffffffffffffffffffffffffffff821415612fd557612fd4613011565b5b600182019050919050565b6000612feb82612f19565b9150612ff683612f19565b92508261300657613005613040565b5b828206905092915050565b7f4e487b7100000000000000000000000000000000000000000000000000000000600052601160045260246000fd5b7f4e487b7100000000000000000000000000000000000000000000000000000000600052601260045260246000fd5b7f4e487b7100000000000000000000000000000000000000000000000000000000600052602260045260246000fd5b7f4e487b7100000000000000000000000000000000000000000000000000000000600052604160045260246000fd5b6000601f19601f8301169050919050565b6130e781612eaf565b81146130f257600080fd5b50565b6130fe81612ec1565b811461310957600080fd5b50565b61311581612ecd565b811461312057600080fd5b50565b61312c81612f19565b811461313757600080fd5b5056fe41207761726c6f636b204e465420772f20494420257320686173206265656e206d696e74656420746f20257341206e6563726f6d616e636572204e465420772f20494420257320686173206265656e206d696e74656420746f202573412077697a617264204e465420772f20494420257320686173206265656e206d696e74656420746f202573a264697066735822122019f1df4c9132522baf8fcc80da9154dc59f0ad1e218ded571d518ece5c1b119564736f6c6343000800003368747470733a2f2f697066732e696f2f697066732f516d57424a51765575556f7648357a633268314d333242746b78426f6e577a4474557757424e53797a35476f546a68747470733a2f2f697066732e696f2f697066732f516d553158474e7a72626931723945616f4b5470766e475a583334344a4d634e486966344362583742437a74664a68747470733a2f2f697066732e696f2f697066732f516d564a4c58454c484d58767557674e327845707270425158376e706635364a694636653376464564376148515868747470733a2f2f697066732e696f2f697066732f516d634b4a6d36416475374b7654465175456d4e44445537433669684d6e526f5559476a64476a317668684b684868747470733a2f2f697066732e696f2f697066732f516d527747695954344b354272684757675352634e6269794437726453613752737450474c46614c65785274747868747470733a2f2f697066732e696f2f697066732f516d5855316d66486861735572724864443732686a574b6e6865673857734c354d6e4e4c465974394d526857464c68747470733a2f2f697066732e696f2f697066732f516d655372476843416e4c5164674c5a396634674456467973453959456166597a5939745a7475666b395133666a68747470733a2f2f697066732e696f2f697066732f516d536f31616b4a4a385a727a694768624c39507955744c473546334c3347386779615a654b574545513269346168747470733a2f2f697066732e696f2f697066732f516d516d50376331374d463775786346387a35433139373873766d537542426d725665444139414178627062736968747470733a2f2f697066732e696f2f697066732f516d65514d50755244586f686a66776734636d5a635468366b5a4e7a53673542576f4d694c50735948396537527268747470733a2f2f697066732e696f2f697066732f516d506246615438714d4c7478775243444a344b567a3848615a7646475651674a4243484a4b54434d6d59743937",
  "linkReferences": {},
  "deployedLinkReferences": {}
}