{
  "_format": "hh-sol-artifact-1",
  "contractName": "MyEpicNFT",
  "sourceName": "contracts/MyEpicNFT.sol",
  "abi": [
    {
      "inputs": [],
      "stateMutability": "nonpayable",
      "type": "constructor"
    },
    {
      "anonymous": false,
      "inputs": [
        {
          "indexed": true,
          "internalType": "address",
          "name": "owner",
          "type": "address"
        },
        {
          "indexed": true,
          "internalType": "address",
          "name": "approved",
          "type": "address"
        },
        {
          "indexed": true,
          "internalType": "uint256",
          "name": "tokenId",
          "type": "uint256"
        }
      ],
      "name": "Approval",
      "type": "event"
    },
    {
      "anonymous": false,
      "inputs": [
        {
          "indexed": true,
          "internalType": "address",
          "name": "owner",
          "type": "address"
        },
        {
          "indexed": true,
          "internalType": "address",
          "name": "operator",
          "type": "address"
        },
        {
          "indexed": false,
          "internalType": "bool",
          "name": "approved",
          "type": "bool"
        }
      ],
      "name": "ApprovalForAll",
      "type": "event"
    },
    {
      "anonymous": false,
      "inputs": [
        {
          "indexed": false,
          "internalType": "address",
          "name": "sender",
          "type": "address"
        },
        {
          "indexed": false,
          "internalType": "uint256",
          "name": "tokenId",
          "type": "uint256"
        }
      ],
      "name": "NewEpicNFTMinted",
      "type": "event"
    },
    {
      "anonymous": false,
      "inputs": [
        {
          "indexed": true,
          "internalType": "address",
          "name": "from",
          "type": "address"
        },
        {
          "indexed": true,
          "internalType": "address",
          "name": "to",
          "type": "address"
        },
        {
          "indexed": true,
          "internalType": "uint256",
          "name": "tokenId",
          "type": "uint256"
        }
      ],
      "name": "Transfer",
      "type": "event"
    },
    {
      "inputs": [
        {
          "internalType": "address",
          "name": "to",
          "type": "address"
        },
        {
          "internalType": "uint256",
          "name": "tokenId",
          "type": "uint256"
        }
      ],
      "name": "approve",
      "outputs": [],
      "stateMutability": "nonpayable",
      "type": "function"
    },
    {
      "inputs": [
        {
          "internalType": "address",
          "name": "owner",
          "type": "address"
        }
      ],
      "name": "balanceOf",
      "outputs": [
        {
          "internalType": "uint256",
          "name": "",
          "type": "uint256"
        }
      ],
      "stateMutability": "view",
      "type": "function"
    },
    {
      "inputs": [
        {
          "internalType": "uint256",
          "name": "tokenId",
          "type": "uint256"
        }
      ],
      "name": "getApproved",
      "outputs": [
        {
          "internalType": "address",
          "name": "",
          "type": "address"
        }
      ],
      "stateMutability": "view",
      "type": "function"
    },
    {
      "inputs": [
        {
          "internalType": "address",
          "name": "owner",
          "type": "address"
        },
        {
          "internalType": "address",
          "name": "operator",
          "type": "address"
        }
      ],
      "name": "isApprovedForAll",
      "outputs": [
        {
          "internalType": "bool",
          "name": "",
          "type": "bool"
        }
      ],
      "stateMutability": "view",
      "type": "function"
    },
    {
      "inputs": [],
      "name": "makeNecromancerNFT",
      "outputs": [],
      "stateMutability": "nonpayable",
      "type": "function"
    },
    {
      "inputs": [],
      "name": "makeWarlockNFT",
      "outputs": [],
      "stateMutability": "nonpayable",
      "type": "function"
    },
    {
      "inputs": [],
      "name": "makeWizardNFT",
      "outputs": [],
      "stateMutability": "nonpayable",
      "type": "function"
    },
    {
      "inputs": [],
      "name": "name",
      "outputs": [
        {
          "internalType": "string",
          "name": "",
          "type": "string"
        }
      ],
      "stateMutability": "view",
      "type": "function"
    },
    {
      "inputs": [
        {
          "internalType": "uint256",
          "name": "tokenId",
          "type": "uint256"
        }
      ],
      "name": "ownerOf",
      "outputs": [
        {
          "internalType": "address",
          "name": "",
          "type": "address"
        }
      ],
      "stateMutability": "view",
      "type": "function"
    },
    {
      "inputs": [
        {
          "internalType": "address",
          "name": "from",
          "type": "address"
        },
        {
          "internalType": "address",
          "name": "to",
          "type": "address"
        },
        {
          "internalType": "uint256",
          "name": "tokenId",
          "type": "uint256"
        }
      ],
      "name": "safeTransferFrom",
      "outputs": [],
      "stateMutability": "nonpayable",
      "type": "function"
    },
    {
      "inputs": [
        {
          "internalType": "address",
          "name": "from",
          "type": "address"
        },
        {
          "internalType": "address",
          "name": "to",
          "type": "address"
        },
        {
          "internalType": "uint256",
          "name": "tokenId",
          "type": "uint256"
        },
        {
          "internalType": "bytes",
          "name": "_data",
          "type": "bytes"
        }
      ],
      "name": "safeTransferFrom",
      "outputs": [],
      "stateMutability": "nonpayable",
      "type": "function"
    },
    {
      "inputs": [
        {
          "internalType": "address",
          "name": "operator",
          "type": "address"
        },
        {
          "internalType": "bool",
          "name": "approved",
          "type": "bool"
        }
      ],
      "name": "setApprovalForAll",
      "outputs": [],
      "stateMutability": "nonpayable",
      "type": "function"
    },
    {
      "inputs": [
        {
          "internalType": "bytes4",
          "name": "interfaceId",
          "type": "bytes4"
        }
      ],
      "name": "supportsInterface",
      "outputs": [
        {
          "internalType": "bool",
          "name": "",
          "type": "bool"
        }
      ],
      "stateMutability": "view",
      "type": "function"
    },
    {
      "inputs": [],
      "name": "symbol",
      "outputs": [
        {
          "internalType": "string",
          "name": "",
          "type": "string"
        }
      ],
      "stateMutability": "view",
      "type": "function"
    },
    {
      "inputs": [
        {
          "internalType": "uint256",
          "name": "tokenId",
          "type": "uint256"
        }
      ],
      "name": "tokenURI",
      "outputs": [
        {
          "internalType": "string",
          "name": "",
          "type": "string"
        }
      ],
      "stateMutability": "view",
      "type": "function"
    },
    {
      "inputs": [
        {
          "internalType": "address",
          "name": "from",
          "type": "address"
        },
        {
          "internalType": "address",
          "name": "to",
          "type": "address"
        },
        {
          "internalType": "uint256",
          "name": "tokenId",
          "type": "uint256"
        }
      ],
      "name": "transferFrom",
      "outputs": [],
      "stateMutability": "nonpayable",
      "type": "function"
    }
  ],
  "bytecode": "0x60806040523480156200001157600080fd5b506040518060400160405280600981526020017f536f7263657265727300000000000000000000000000000000000000000000008152506040518060400160405280600481526020017f534f524300000000000000000000000000000000000000000000000000000000815250816000908051906020019062000096929190620001cf565b508060019080519060200190620000af929190620001cf565b505050620000fd6040518060400160405280601e81526020017f54686973206973206d79204e465420636f6e74726163742e20576f61682100008152506200010360201b62000feb1760201c565b620003ac565b620001a3816040516024016200011a9190620002c0565b6040516020818303038152906040527f41304fac000000000000000000000000000000000000000000000000000000007bffffffffffffffffffffffffffffffffffffffffffffffffffffffff19166020820180517bffffffffffffffffffffffffffffffffffffffffffffffffffffffff8381831617835250505050620001a660201b60201c565b50565b60008151905060006a636f6e736f6c652e6c6f679050602083016000808483855afa5050505050565b828054620001dd9062000336565b90600052602060002090601f0160209004810192826200020157600085556200024d565b82601f106200021c57805160ff19168380011785556200024d565b828001600101855582156200024d579182015b828111156200024c5782518255916020019190600101906200022f565b5b5090506200025c919062000260565b5090565b5b808211156200027b57600081600090555060010162000261565b5090565b60006200028c82620002e4565b620002988185620002ef565b9350620002aa81856020860162000300565b620002b5816200039b565b840191505092915050565b60006020820190508181036000830152620002dc81846200027f565b905092915050565b600081519050919050565b600082825260208201905092915050565b60005b838110156200032057808201518184015260208101905062000303565b8381111562000330576000848401525b50505050565b600060028204905060018216806200034f57607f821691505b602082108114156200036657620003656200036c565b5b50919050565b7f4e487b7100000000000000000000000000000000000000000000000000000000600052602260045260246000fd5b6000601f19601f8301169050919050565b61308080620003bc6000396000f3fe608060405234801561001057600080fd5b50600436106101005760003560e01c806370a0823111610097578063c87b56dd11610066578063c87b56dd14610297578063cdaa3bd8146102c7578063e985e9c5146102d1578063f49bff3b1461030157610100565b806370a082311461021157806395d89b4114610241578063a22cb4651461025f578063b88d4fde1461027b57610100565b806317b14218116100d357806317b142181461019f57806323b872dd146101a957806342842e0e146101c55780636352211e146101e157610100565b806301ffc9a71461010557806306fdde0314610135578063081812fc14610153578063095ea7b314610183575b600080fd5b61011f600480360381019061011a919061208d565b61030b565b60405161012c919061287a565b60405180910390f35b61013d6103ed565b60405161014a9190612895565b60405180910390f35b61016d600480360381019061016891906120df565b61047f565b60405161017a91906127ea565b60405180910390f35b61019d60048036038101906101989190612051565b610504565b005b6101a761061c565b005b6101c360048036038101906101be9190611f4b565b61074a565b005b6101df60048036038101906101da9190611f4b565b6107aa565b005b6101fb60048036038101906101f691906120df565b6107ca565b60405161020891906127ea565b60405180910390f35b61022b60048036038101906102269190611ee6565b61087c565b6040516102389190612af5565b60405180910390f35b610249610934565b6040516102569190612895565b60405180910390f35b61027960048036038101906102749190612015565b6109c6565b005b61029560048036038101906102909190611f9a565b610b47565b005b6102b160048036038101906102ac91906120df565b610ba9565b6040516102be9190612895565b60405180910390f35b6102cf610cfb565b005b6102eb60048036038101906102e69190611f0f565b610e29565b6040516102f8919061287a565b60405180910390f35b610309610ebd565b005b60007f80ac58cd000000000000000000000000000000000000000000000000000000007bffffffffffffffffffffffffffffffffffffffffffffffffffffffff1916827bffffffffffffffffffffffffffffffffffffffffffffffffffffffff191614806103d657507f5b5e139f000000000000000000000000000000000000000000000000000000007bffffffffffffffffffffffffffffffffffffffffffffffffffffffff1916827bffffffffffffffffffffffffffffffffffffffffffffffffffffffff1916145b806103e657506103e582611084565b5b9050919050565b6060600080546103fc90612d25565b80601f016020809104026020016040519081016040528092919081815260200182805461042890612d25565b80156104755780601f1061044a57610100808354040283529160200191610475565b820191906000526020600020905b81548152906001019060200180831161045857829003601f168201915b5050505050905090565b600061048a826110ee565b6104c9576040517f08c379a00000000000000000000000000000000000000000000000000000000081526004016104c090612a55565b60405180910390fd5b6004600083815260200190815260200160002060009054906101000a900473ffffffffffffffffffffffffffffffffffffffff169050919050565b600061050f826107ca565b90508073ffffffffffffffffffffffffffffffffffffffff168373ffffffffffffffffffffffffffffffffffffffff161415610580576040517f08c379a000000000000000000000000000000000000000000000000000000000815260040161057790612ab5565b60405180910390fd5b8073ffffffffffffffffffffffffffffffffffffffff1661059f61115a565b73ffffffffffffffffffffffffffffffffffffffff1614806105ce57506105cd816105c861115a565b610e29565b5b61060d576040517f08c379a000000000000000000000000000000000000000000000000000000000815260040161060490612995565b60405180910390fd5b6106178383611162565b505050565b6000610628600761121b565b90506000604051806080016040528060438152602001612fc56043913990506106856040518060400160405280601581526020017f0a2d2d2d2d2d2d2d2d2d2d2d2d2d2d2d2d2d2d2d2d0000000000000000000000815250610feb565b61068e81610feb565b6106cc6040518060400160405280601581526020017f2d2d2d2d2d2d2d2d2d2d2d2d2d2d2d2d2d2d2d2d0a0000000000000000000000815250610feb565b6106d63383611229565b6106e08282611247565b6106ea60076112bb565b61070d6040518060600160405280602b8152602001612f9a602b913983336112d1565b7febb98688741ffa4c7589bf325de30cf7becb63de567842e1ccdb6cb949fdc82c338360405161073e929190612851565b60405180910390a15050565b61075b61075561115a565b82611370565b61079a576040517f08c379a000000000000000000000000000000000000000000000000000000000815260040161079190612ad5565b60405180910390fd5b6107a583838361144e565b505050565b6107c583838360405180602001604052806000815250610b47565b505050565b6000806002600084815260200190815260200160002060009054906101000a900473ffffffffffffffffffffffffffffffffffffffff169050600073ffffffffffffffffffffffffffffffffffffffff168173ffffffffffffffffffffffffffffffffffffffff161415610873576040517f08c379a000000000000000000000000000000000000000000000000000000000815260040161086a906129d5565b60405180910390fd5b80915050919050565b60008073ffffffffffffffffffffffffffffffffffffffff168273ffffffffffffffffffffffffffffffffffffffff1614156108ed576040517f08c379a00000000000000000000000000000000000000000000000000000000081526004016108e4906129b5565b60405180910390fd5b600360008373ffffffffffffffffffffffffffffffffffffffff1673ffffffffffffffffffffffffffffffffffffffff168152602001908152602001600020549050919050565b60606001805461094390612d25565b80601f016020809104026020016040519081016040528092919081815260200182805461096f90612d25565b80156109bc5780601f10610991576101008083540402835291602001916109bc565b820191906000526020600020905b81548152906001019060200180831161099f57829003601f168201915b5050505050905090565b6109ce61115a565b73ffffffffffffffffffffffffffffffffffffffff168273ffffffffffffffffffffffffffffffffffffffff161415610a3c576040517f08c379a0000000000000000000000000000000000000000000000000000000008152600401610a3390612955565b60405180910390fd5b8060056000610a4961115a565b73ffffffffffffffffffffffffffffffffffffffff1673ffffffffffffffffffffffffffffffffffffffff16815260200190815260200160002060008473ffffffffffffffffffffffffffffffffffffffff1673ffffffffffffffffffffffffffffffffffffffff16815260200190815260200160002060006101000a81548160ff0219169083151502179055508173ffffffffffffffffffffffffffffffffffffffff16610af661115a565b73ffffffffffffffffffffffffffffffffffffffff167f17307eab39ab6107e8899845ad3d59bd9653f200f220920489ca2b5937696c3183604051610b3b919061287a565b60405180910390a35050565b610b58610b5261115a565b83611370565b610b97576040517f08c379a0000000000000000000000000000000000000000000000000000000008152600401610b8e90612ad5565b60405180910390fd5b610ba3848484846116aa565b50505050565b6060610bb4826110ee565b610bf3576040517f08c379a0000000000000000000000000000000000000000000000000000000008152600401610bea90612a35565b60405180910390fd5b6000600660008481526020019081526020016000208054610c1390612d25565b80601f0160208091040260200160405190810160405280929190818152602001828054610c3f90612d25565b8015610c8c5780601f10610c6157610100808354040283529160200191610c8c565b820191906000526020600020905b815481529060010190602001808311610c6f57829003601f168201915b505050505090506000610c9d611706565b9050600081511415610cb3578192505050610cf6565b600082511115610ce8578082604051602001610cd09291906127c6565b60405160208183030381529060405292505050610cf6565b610cf18461171d565b925050505b919050565b6000610d07600761121b565b90506000604051806080016040528060438152602001613008604391399050610d646040518060400160405280601581526020017f0a2d2d2d2d2d2d2d2d2d2d2d2d2d2d2d2d2d2d2d2d0000000000000000000000815250610feb565b610d6d81610feb565b610dab6040518060400160405280601581526020017f2d2d2d2d2d2d2d2d2d2d2d2d2d2d2d2d2d2d2d2d0a0000000000000000000000815250610feb565b610db53383611229565b610dbf8282611247565b610dc960076112bb565b610dec604051806060016040528060308152602001612f6a6030913983336112d1565b7febb98688741ffa4c7589bf325de30cf7becb63de567842e1ccdb6cb949fdc82c3383604051610e1d929190612851565b60405180910390a15050565b6000600560008473ffffffffffffffffffffffffffffffffffffffff1673ffffffffffffffffffffffffffffffffffffffff16815260200190815260200160002060008373ffffffffffffffffffffffffffffffffffffffff1673ffffffffffffffffffffffffffffffffffffffff16815260200190815260200160002060009054906101000a900460ff16905092915050565b6000610ec9600761121b565b90506000604051806080016040528060438152602001612efb604391399050610f266040518060400160405280601581526020017f0a2d2d2d2d2d2d2d2d2d2d2d2d2d2d2d2d2d2d2d2d0000000000000000000000815250610feb565b610f2f81610feb565b610f6d6040518060400160405280601581526020017f2d2d2d2d2d2d2d2d2d2d2d2d2d2d2d2d2d2d2d2d0a0000000000000000000000815250610feb565b610f773383611229565b610f818282611247565b610f8b60076112bb565b610fae6040518060600160405280602c8152602001612f3e602c913983336112d1565b7febb98688741ffa4c7589bf325de30cf7becb63de567842e1ccdb6cb949fdc82c3383604051610fdf929190612851565b60405180910390a15050565b61108181604051602401610fff9190612895565b6040516020818303038152906040527f41304fac000000000000000000000000000000000000000000000000000000007bffffffffffffffffffffffffffffffffffffffffffffffffffffffff19166020820180517bffffffffffffffffffffffffffffffffffffffffffffffffffffffff83818316178352505050506117c4565b50565b60007f01ffc9a7000000000000000000000000000000000000000000000000000000007bffffffffffffffffffffffffffffffffffffffffffffffffffffffff1916827bffffffffffffffffffffffffffffffffffffffffffffffffffffffff1916149050919050565b60008073ffffffffffffffffffffffffffffffffffffffff166002600084815260200190815260200160002060009054906101000a900473ffffffffffffffffffffffffffffffffffffffff1673ffffffffffffffffffffffffffffffffffffffff1614159050919050565b600033905090565b816004600083815260200190815260200160002060006101000a81548173ffffffffffffffffffffffffffffffffffffffff021916908373ffffffffffffffffffffffffffffffffffffffff160217905550808273ffffffffffffffffffffffffffffffffffffffff166111d5836107ca565b73ffffffffffffffffffffffffffffffffffffffff167f8c5be1e5ebec7d5bd14f71427d1e84f3dd0314c0f7b2291e5b200ac8c7c3b92560405160405180910390a45050565b600081600001549050919050565b6112438282604051806020016040528060008152506117ed565b5050565b611250826110ee565b61128f576040517f08c379a0000000000000000000000000000000000000000000000000000000008152600401611286906129f5565b60405180910390fd5b806006600084815260200190815260200160002090805190602001906112b6929190611d72565b505050565b6001816000016000828254019250508190555050565b61136b8383836040516024016112e9939291906128b7565b6040516020818303038152906040527fe3849f79000000000000000000000000000000000000000000000000000000007bffffffffffffffffffffffffffffffffffffffffffffffffffffffff19166020820180517bffffffffffffffffffffffffffffffffffffffffffffffffffffffff83818316178352505050506117c4565b505050565b600061137b826110ee565b6113ba576040517f08c379a00000000000000000000000000000000000000000000000000000000081526004016113b190612975565b60405180910390fd5b60006113c5836107ca565b90508073ffffffffffffffffffffffffffffffffffffffff168473ffffffffffffffffffffffffffffffffffffffff16148061143457508373ffffffffffffffffffffffffffffffffffffffff1661141c8461047f565b73ffffffffffffffffffffffffffffffffffffffff16145b8061144557506114448185610e29565b5b91505092915050565b8273ffffffffffffffffffffffffffffffffffffffff1661146e826107ca565b73ffffffffffffffffffffffffffffffffffffffff16146114c4576040517f08c379a00000000000000000000000000000000000000000000000000000000081526004016114bb90612a75565b60405180910390fd5b600073ffffffffffffffffffffffffffffffffffffffff168273ffffffffffffffffffffffffffffffffffffffff161415611534576040517f08c379a000000000000000000000000000000000000000000000000000000000815260040161152b90612935565b60405180910390fd5b61153f838383611848565b61154a600082611162565b6001600360008573ffffffffffffffffffffffffffffffffffffffff1673ffffffffffffffffffffffffffffffffffffffff168152602001908152602001600020600082825461159a9190612c3b565b925050819055506001600360008473ffffffffffffffffffffffffffffffffffffffff1673ffffffffffffffffffffffffffffffffffffffff16815260200190815260200160002060008282546115f19190612bb4565b92505081905550816002600083815260200190815260200160002060006101000a81548173ffffffffffffffffffffffffffffffffffffffff021916908373ffffffffffffffffffffffffffffffffffffffff160217905550808273ffffffffffffffffffffffffffffffffffffffff168473ffffffffffffffffffffffffffffffffffffffff167fddf252ad1be2c89b69c2b068fc378daa952ba7f163c4a11628f55a4df523b3ef60405160405180910390a4505050565b6116b584848461144e565b6116c18484848461184d565b611700576040517f08c379a00000000000000000000000000000000000000000000000000000000081526004016116f7906128f5565b60405180910390fd5b50505050565b606060405180602001604052806000815250905090565b6060611728826110ee565b611767576040517f08c379a000000000000000000000000000000000000000000000000000000000815260040161175e90612a95565b60405180910390fd5b6000611771611706565b9050600081511161179157604051806020016040528060008152506117bc565b8061179b846119e4565b6040516020016117ac9291906127c6565b6040516020818303038152906040525b915050919050565b60008151905060006a636f6e736f6c652e6c6f679050602083016000808483855afa5050505050565b6117f78383611b91565b611804600084848461184d565b611843576040517f08c379a000000000000000000000000000000000000000000000000000000000815260040161183a906128f5565b60405180910390fd5b505050565b505050565b600061186e8473ffffffffffffffffffffffffffffffffffffffff16611d5f565b156119d7578373ffffffffffffffffffffffffffffffffffffffff1663150b7a0261189761115a565b8786866040518563ffffffff1660e01b81526004016118b99493929190612805565b602060405180830381600087803b1580156118d357600080fd5b505af192505050801561190457506040513d601f19601f8201168201806040525081019061190191906120b6565b60015b611987573d8060008114611934576040519150601f19603f3d011682016040523d82523d6000602084013e611939565b606091505b5060008151141561197f576040517f08c379a0000000000000000000000000000000000000000000000000000000008152600401611976906128f5565b60405180910390fd5b805181602001fd5b63150b7a0260e01b7bffffffffffffffffffffffffffffffffffffffffffffffffffffffff1916817bffffffffffffffffffffffffffffffffffffffffffffffffffffffff1916149150506119dc565b600190505b949350505050565b60606000821415611a2c576040518060400160405280600181526020017f30000000000000000000000000000000000000000000000000000000000000008152509050611b8c565b600082905060005b60008214611a5e578080611a4790612d57565b915050600a82611a579190612c0a565b9150611a34565b60008167ffffffffffffffff811115611aa0577f4e487b7100000000000000000000000000000000000000000000000000000000600052604160045260246000fd5b6040519080825280601f01601f191660200182016040528015611ad25781602001600182028036833780820191505090505b5090505b60008514611b8557600182611aeb9190612c3b565b9150600a85611afa9190612da0565b6030611b069190612bb4565b60f81b818381518110611b42577f4e487b7100000000000000000000000000000000000000000000000000000000600052603260045260246000fd5b60200101907effffffffffffffffffffffffffffffffffffffffffffffffffffffffffffff1916908160001a905350600a85611b7e9190612c0a565b9450611ad6565b8093505050505b919050565b600073ffffffffffffffffffffffffffffffffffffffff168273ffffffffffffffffffffffffffffffffffffffff161415611c01576040517f08c379a0000000000000000000000000000000000000000000000000000000008152600401611bf890612a15565b60405180910390fd5b611c0a816110ee565b15611c4a576040517f08c379a0000000000000000000000000000000000000000000000000000000008152600401611c4190612915565b60405180910390fd5b611c5660008383611848565b6001600360008473ffffffffffffffffffffffffffffffffffffffff1673ffffffffffffffffffffffffffffffffffffffff1681526020019081526020016000206000828254611ca69190612bb4565b92505081905550816002600083815260200190815260200160002060006101000a81548173ffffffffffffffffffffffffffffffffffffffff021916908373ffffffffffffffffffffffffffffffffffffffff160217905550808273ffffffffffffffffffffffffffffffffffffffff16600073ffffffffffffffffffffffffffffffffffffffff167fddf252ad1be2c89b69c2b068fc378daa952ba7f163c4a11628f55a4df523b3ef60405160405180910390a45050565b600080823b905060008111915050919050565b828054611d7e90612d25565b90600052602060002090601f016020900481019282611da05760008555611de7565b82601f10611db957805160ff1916838001178555611de7565b82800160010185558215611de7579182015b82811115611de6578251825591602001919060010190611dcb565b5b509050611df49190611df8565b5090565b5b80821115611e11576000816000905550600101611df9565b5090565b6000611e28611e2384612b41565b612b10565b905082815260208101848484011115611e4057600080fd5b611e4b848285612ce3565b509392505050565b600081359050611e6281612e9e565b92915050565b600081359050611e7781612eb5565b92915050565b600081359050611e8c81612ecc565b92915050565b600081519050611ea181612ecc565b92915050565b600082601f830112611eb857600080fd5b8135611ec8848260208601611e15565b91505092915050565b600081359050611ee081612ee3565b92915050565b600060208284031215611ef857600080fd5b6000611f0684828501611e53565b91505092915050565b60008060408385031215611f2257600080fd5b6000611f3085828601611e53565b9250506020611f4185828601611e53565b9150509250929050565b600080600060608486031215611f6057600080fd5b6000611f6e86828701611e53565b9350506020611f7f86828701611e53565b9250506040611f9086828701611ed1565b9150509250925092565b60008060008060808587031215611fb057600080fd5b6000611fbe87828801611e53565b9450506020611fcf87828801611e53565b9350506040611fe087828801611ed1565b925050606085013567ffffffffffffffff811115611ffd57600080fd5b61200987828801611ea7565b91505092959194509250565b6000806040838503121561202857600080fd5b600061203685828601611e53565b925050602061204785828601611e68565b9150509250929050565b6000806040838503121561206457600080fd5b600061207285828601611e53565b925050602061208385828601611ed1565b9150509250929050565b60006020828403121561209f57600080fd5b60006120ad84828501611e7d565b91505092915050565b6000602082840312156120c857600080fd5b60006120d684828501611e92565b91505092915050565b6000602082840312156120f157600080fd5b60006120ff84828501611ed1565b91505092915050565b61211181612c6f565b82525050565b61212081612c81565b82525050565b600061213182612b71565b61213b8185612b87565b935061214b818560208601612cf2565b61215481612e8d565b840191505092915050565b600061216a82612b7c565b6121748185612b98565b9350612184818560208601612cf2565b61218d81612e8d565b840191505092915050565b60006121a382612b7c565b6121ad8185612ba9565b93506121bd818560208601612cf2565b80840191505092915050565b60006121d6603283612b98565b91507f4552433732313a207472616e7366657220746f206e6f6e20455243373231526560008301527f63656976657220696d706c656d656e74657200000000000000000000000000006020830152604082019050919050565b600061223c601c83612b98565b91507f4552433732313a20746f6b656e20616c7265616479206d696e746564000000006000830152602082019050919050565b600061227c602483612b98565b91507f4552433732313a207472616e7366657220746f20746865207a65726f2061646460008301527f72657373000000000000000000000000000000000000000000000000000000006020830152604082019050919050565b60006122e2601983612b98565b91507f4552433732313a20617070726f766520746f2063616c6c6572000000000000006000830152602082019050919050565b6000612322602c83612b98565b91507f4552433732313a206f70657261746f7220717565727920666f72206e6f6e657860008301527f697374656e7420746f6b656e00000000000000000000000000000000000000006020830152604082019050919050565b6000612388603883612b98565b91507f4552433732313a20617070726f76652063616c6c6572206973206e6f74206f7760008301527f6e6572206e6f7220617070726f76656420666f7220616c6c00000000000000006020830152604082019050919050565b60006123ee602a83612b98565b91507f4552433732313a2062616c616e636520717565727920666f7220746865207a6560008301527f726f2061646472657373000000000000000000000000000000000000000000006020830152604082019050919050565b6000612454602983612b98565b91507f4552433732313a206f776e657220717565727920666f72206e6f6e657869737460008301527f656e7420746f6b656e00000000000000000000000000000000000000000000006020830152604082019050919050565b60006124ba602e83612b98565b91507f45524337323155524953746f726167653a2055524920736574206f66206e6f6e60008301527f6578697374656e7420746f6b656e0000000000000000000000000000000000006020830152604082019050919050565b6000612520602083612b98565b91507f4552433732313a206d696e7420746f20746865207a65726f20616464726573736000830152602082019050919050565b6000612560603183612b98565b91507f45524337323155524953746f726167653a2055524920717565727920666f722060008301527f6e6f6e6578697374656e7420746f6b656e0000000000000000000000000000006020830152604082019050919050565b60006125c6602c83612b98565b91507f4552433732313a20617070726f76656420717565727920666f72206e6f6e657860008301527f697374656e7420746f6b656e00000000000000000000000000000000000000006020830152604082019050919050565b600061262c602983612b98565b91507f4552433732313a207472616e73666572206f6620746f6b656e2074686174206960008301527f73206e6f74206f776e00000000000000000000000000000000000000000000006020830152604082019050919050565b6000612692602f83612b98565b91507f4552433732314d657461646174613a2055524920717565727920666f72206e6f60008301527f6e6578697374656e7420746f6b656e00000000000000000000000000000000006020830152604082019050919050565b60006126f8602183612b98565b91507f4552433732313a20617070726f76616c20746f2063757272656e74206f776e6560008301527f72000000000000000000000000000000000000000000000000000000000000006020830152604082019050919050565b600061275e603183612b98565b91507f4552433732313a207472616e736665722063616c6c6572206973206e6f74206f60008301527f776e6572206e6f7220617070726f7665640000000000000000000000000000006020830152604082019050919050565b6127c081612cd9565b82525050565b60006127d28285612198565b91506127de8284612198565b91508190509392505050565b60006020820190506127ff6000830184612108565b92915050565b600060808201905061281a6000830187612108565b6128276020830186612108565b61283460408301856127b7565b81810360608301526128468184612126565b905095945050505050565b60006040820190506128666000830185612108565b61287360208301846127b7565b9392505050565b600060208201905061288f6000830184612117565b92915050565b600060208201905081810360008301526128af818461215f565b905092915050565b600060608201905081810360008301526128d1818661215f565b90506128e060208301856127b7565b6128ed6040830184612108565b949350505050565b6000602082019050818103600083015261290e816121c9565b9050919050565b6000602082019050818103600083015261292e8161222f565b9050919050565b6000602082019050818103600083015261294e8161226f565b9050919050565b6000602082019050818103600083015261296e816122d5565b9050919050565b6000602082019050818103600083015261298e81612315565b9050919050565b600060208201905081810360008301526129ae8161237b565b9050919050565b600060208201905081810360008301526129ce816123e1565b9050919050565b600060208201905081810360008301526129ee81612447565b9050919050565b60006020820190508181036000830152612a0e816124ad565b9050919050565b60006020820190508181036000830152612a2e81612513565b9050919050565b60006020820190508181036000830152612a4e81612553565b9050919050565b60006020820190508181036000830152612a6e816125b9565b9050919050565b60006020820190508181036000830152612a8e8161261f565b9050919050565b60006020820190508181036000830152612aae81612685565b9050919050565b60006020820190508181036000830152612ace816126eb565b9050919050565b60006020820190508181036000830152612aee81612751565b9050919050565b6000602082019050612b0a60008301846127b7565b92915050565b6000604051905081810181811067ffffffffffffffff82111715612b3757612b36612e5e565b5b8060405250919050565b600067ffffffffffffffff821115612b5c57612b5b612e5e565b5b601f19601f8301169050602081019050919050565b600081519050919050565b600081519050919050565b600082825260208201905092915050565b600082825260208201905092915050565b600081905092915050565b6000612bbf82612cd9565b9150612bca83612cd9565b9250827fffffffffffffffffffffffffffffffffffffffffffffffffffffffffffffffff03821115612bff57612bfe612dd1565b5b828201905092915050565b6000612c1582612cd9565b9150612c2083612cd9565b925082612c3057612c2f612e00565b5b828204905092915050565b6000612c4682612cd9565b9150612c5183612cd9565b925082821015612c6457612c63612dd1565b5b828203905092915050565b6000612c7a82612cb9565b9050919050565b60008115159050919050565b60007fffffffff0000000000000000000000000000000000000000000000000000000082169050919050565b600073ffffffffffffffffffffffffffffffffffffffff82169050919050565b6000819050919050565b82818337600083830152505050565b60005b83811015612d10578082015181840152602081019050612cf5565b83811115612d1f576000848401525b50505050565b60006002820490506001821680612d3d57607f821691505b60208210811415612d5157612d50612e2f565b5b50919050565b6000612d6282612cd9565b91507fffffffffffffffffffffffffffffffffffffffffffffffffffffffffffffffff821415612d9557612d94612dd1565b5b600182019050919050565b6000612dab82612cd9565b9150612db683612cd9565b925082612dc657612dc5612e00565b5b828206905092915050565b7f4e487b7100000000000000000000000000000000000000000000000000000000600052601160045260246000fd5b7f4e487b7100000000000000000000000000000000000000000000000000000000600052601260045260246000fd5b7f4e487b7100000000000000000000000000000000000000000000000000000000600052602260045260246000fd5b7f4e487b7100000000000000000000000000000000000000000000000000000000600052604160045260246000fd5b6000601f19601f8301169050919050565b612ea781612c6f565b8114612eb257600080fd5b50565b612ebe81612c81565b8114612ec957600080fd5b50565b612ed581612c8d565b8114612ee057600080fd5b50565b612eec81612cd9565b8114612ef757600080fd5b5056fe68747470733a2f2f697066732e696f2f697066732f516d56697972503752773637326b73644669465a55747734433734527961367069383466677439676f387136667941207761726c6f636b204e465420772f20494420257320686173206265656e206d696e74656420746f20257341206e6563726f6d616e636572204e465420772f20494420257320686173206265656e206d696e74656420746f202573412077697a617264204e465420772f20494420257320686173206265656e206d696e74656420746f20257368747470733a2f2f697066732e696f2f697066732f516d59694a7043476363753838427937663746336b6872387267554841327941734d46744a34436669705159736468747470733a2f2f697066732e696f2f697066732f516d5853783842647171464272666a7947397373796a7862437045634b5679667475707a4155395534713156627aa26469706673582212208a2b4c1cadcee5a3023af785494f0f47266f982a1aa5b805467dcf9ff938eefd64736f6c63430008000033",
  "linkReferences": {},
  "deployedLinkReferences": {}
}