{
  "_format": "hh-sol-artifact-1",
  "contractName": "MyEpicNFT",
  "sourceName": "contracts/MyEpicNFT.sol",
  "abi": [
    {
      "inputs": [],
      "stateMutability": "nonpayable",
      "type": "constructor"
    },
    {
      "anonymous": false,
      "inputs": [
        {
          "indexed": true,
          "internalType": "address",
          "name": "owner",
          "type": "address"
        },
        {
          "indexed": true,
          "internalType": "address",
          "name": "approved",
          "type": "address"
        },
        {
          "indexed": true,
          "internalType": "uint256",
          "name": "tokenId",
          "type": "uint256"
        }
      ],
      "name": "Approval",
      "type": "event"
    },
    {
      "anonymous": false,
      "inputs": [
        {
          "indexed": true,
          "internalType": "address",
          "name": "owner",
          "type": "address"
        },
        {
          "indexed": true,
          "internalType": "address",
          "name": "operator",
          "type": "address"
        },
        {
          "indexed": false,
          "internalType": "bool",
          "name": "approved",
          "type": "bool"
        }
      ],
      "name": "ApprovalForAll",
      "type": "event"
    },
    {
      "anonymous": false,
      "inputs": [
        {
          "indexed": false,
          "internalType": "address",
          "name": "sender",
          "type": "address"
        },
        {
          "indexed": false,
          "internalType": "uint256",
          "name": "tokeId",
          "type": "uint256"
        }
      ],
      "name": "NewEpicNFTMinted",
      "type": "event"
    },
    {
      "anonymous": false,
      "inputs": [
        {
          "indexed": true,
          "internalType": "address",
          "name": "from",
          "type": "address"
        },
        {
          "indexed": true,
          "internalType": "address",
          "name": "to",
          "type": "address"
        },
        {
          "indexed": true,
          "internalType": "uint256",
          "name": "tokenId",
          "type": "uint256"
        }
      ],
      "name": "Transfer",
      "type": "event"
    },
    {
      "inputs": [
        {
          "internalType": "address",
          "name": "to",
          "type": "address"
        },
        {
          "internalType": "uint256",
          "name": "tokenId",
          "type": "uint256"
        }
      ],
      "name": "approve",
      "outputs": [],
      "stateMutability": "nonpayable",
      "type": "function"
    },
    {
      "inputs": [
        {
          "internalType": "address",
          "name": "owner",
          "type": "address"
        }
      ],
      "name": "balanceOf",
      "outputs": [
        {
          "internalType": "uint256",
          "name": "",
          "type": "uint256"
        }
      ],
      "stateMutability": "view",
      "type": "function"
    },
    {
      "inputs": [
        {
          "internalType": "uint256",
          "name": "tokenId",
          "type": "uint256"
        }
      ],
      "name": "getApproved",
      "outputs": [
        {
          "internalType": "address",
          "name": "",
          "type": "address"
        }
      ],
      "stateMutability": "view",
      "type": "function"
    },
    {
      "inputs": [],
      "name": "getTotalNFTsMinted",
      "outputs": [
        {
          "internalType": "uint256",
          "name": "",
          "type": "uint256"
        }
      ],
      "stateMutability": "view",
      "type": "function"
    },
    {
      "inputs": [
        {
          "internalType": "address",
          "name": "owner",
          "type": "address"
        },
        {
          "internalType": "address",
          "name": "operator",
          "type": "address"
        }
      ],
      "name": "isApprovedForAll",
      "outputs": [
        {
          "internalType": "bool",
          "name": "",
          "type": "bool"
        }
      ],
      "stateMutability": "view",
      "type": "function"
    },
    {
      "inputs": [],
      "name": "makeAnEpicNFT",
      "outputs": [],
      "stateMutability": "nonpayable",
      "type": "function"
    },
    {
      "inputs": [],
      "name": "name",
      "outputs": [
        {
          "internalType": "string",
          "name": "",
          "type": "string"
        }
      ],
      "stateMutability": "view",
      "type": "function"
    },
    {
      "inputs": [
        {
          "internalType": "uint256",
          "name": "tokenId",
          "type": "uint256"
        }
      ],
      "name": "ownerOf",
      "outputs": [
        {
          "internalType": "address",
          "name": "",
          "type": "address"
        }
      ],
      "stateMutability": "view",
      "type": "function"
    },
    {
      "inputs": [
        {
          "internalType": "uint256",
          "name": "tokenId",
          "type": "uint256"
        }
      ],
      "name": "pickRandomColor",
      "outputs": [
        {
          "internalType": "string",
          "name": "",
          "type": "string"
        }
      ],
      "stateMutability": "view",
      "type": "function"
    },
    {
      "inputs": [
        {
          "internalType": "uint256",
          "name": "tokenId",
          "type": "uint256"
        }
      ],
      "name": "pickRandomFirstWord",
      "outputs": [
        {
          "internalType": "string",
          "name": "",
          "type": "string"
        }
      ],
      "stateMutability": "view",
      "type": "function"
    },
    {
      "inputs": [
        {
          "internalType": "uint256",
          "name": "tokenId",
          "type": "uint256"
        }
      ],
      "name": "pickRandomSecondWord",
      "outputs": [
        {
          "internalType": "string",
          "name": "",
          "type": "string"
        }
      ],
      "stateMutability": "view",
      "type": "function"
    },
    {
      "inputs": [
        {
          "internalType": "uint256",
          "name": "tokenId",
          "type": "uint256"
        }
      ],
      "name": "pickRandomThirdWord",
      "outputs": [
        {
          "internalType": "string",
          "name": "",
          "type": "string"
        }
      ],
      "stateMutability": "view",
      "type": "function"
    },
    {
      "inputs": [
        {
          "internalType": "address",
          "name": "from",
          "type": "address"
        },
        {
          "internalType": "address",
          "name": "to",
          "type": "address"
        },
        {
          "internalType": "uint256",
          "name": "tokenId",
          "type": "uint256"
        }
      ],
      "name": "safeTransferFrom",
      "outputs": [],
      "stateMutability": "nonpayable",
      "type": "function"
    },
    {
      "inputs": [
        {
          "internalType": "address",
          "name": "from",
          "type": "address"
        },
        {
          "internalType": "address",
          "name": "to",
          "type": "address"
        },
        {
          "internalType": "uint256",
          "name": "tokenId",
          "type": "uint256"
        },
        {
          "internalType": "bytes",
          "name": "_data",
          "type": "bytes"
        }
      ],
      "name": "safeTransferFrom",
      "outputs": [],
      "stateMutability": "nonpayable",
      "type": "function"
    },
    {
      "inputs": [
        {
          "internalType": "address",
          "name": "operator",
          "type": "address"
        },
        {
          "internalType": "bool",
          "name": "approved",
          "type": "bool"
        }
      ],
      "name": "setApprovalForAll",
      "outputs": [],
      "stateMutability": "nonpayable",
      "type": "function"
    },
    {
      "inputs": [
        {
          "internalType": "bytes4",
          "name": "interfaceId",
          "type": "bytes4"
        }
      ],
      "name": "supportsInterface",
      "outputs": [
        {
          "internalType": "bool",
          "name": "",
          "type": "bool"
        }
      ],
      "stateMutability": "view",
      "type": "function"
    },
    {
      "inputs": [],
      "name": "symbol",
      "outputs": [
        {
          "internalType": "string",
          "name": "",
          "type": "string"
        }
      ],
      "stateMutability": "view",
      "type": "function"
    },
    {
      "inputs": [
        {
          "internalType": "uint256",
          "name": "tokenId",
          "type": "uint256"
        }
      ],
      "name": "tokenURI",
      "outputs": [
        {
          "internalType": "string",
          "name": "",
          "type": "string"
        }
      ],
      "stateMutability": "view",
      "type": "function"
    },
    {
      "inputs": [
        {
          "internalType": "address",
          "name": "from",
          "type": "address"
        },
        {
          "internalType": "address",
          "name": "to",
          "type": "address"
        },
        {
          "internalType": "uint256",
          "name": "tokenId",
          "type": "uint256"
        }
      ],
      "name": "transferFrom",
      "outputs": [],
      "stateMutability": "nonpayable",
      "type": "function"
    }
  ],
  "bytecode": "0x608060405260405180610100016040528060d381526020016200462c60d3913960089080519060200190620000369291906200082c565b50604051806080016040528060568152602001620046ff6056913960099080519060200190620000689291906200082c565b506040518060c001604052806040518060400160405280600481526020017f4e6963650000000000000000000000000000000000000000000000000000000081525081526020016040518060400160405280600781526020017f417765736f6d650000000000000000000000000000000000000000000000000081525081526020016040518060400160405280600a81526020017f496d70726573736976650000000000000000000000000000000000000000000081525081526020016040518060400160405280600781526020017f437572696f75730000000000000000000000000000000000000000000000000081525081526020016040518060400160405280600581526020017f486561767900000000000000000000000000000000000000000000000000000081525081526020016040518060400160405280600581526020017f4c69676874000000000000000000000000000000000000000000000000000000815250815250600a906006620001e6929190620008bd565b506040518060c001604052806040518060400160405280600381526020017f446f67000000000000000000000000000000000000000000000000000000000081525081526020016040518060400160405280600381526020017f436172000000000000000000000000000000000000000000000000000000000081525081526020016040518060400160405280600481526020017f547269700000000000000000000000000000000000000000000000000000000081525081526020016040518060400160405280600981526020017f496e74656772697479000000000000000000000000000000000000000000000081525081526020016040518060400160405280600581526020017f466c61777300000000000000000000000000000000000000000000000000000081525081526020016040518060400160405280600681526020017f4265617574790000000000000000000000000000000000000000000000000000815250815250600b90600662000364929190620008bd565b506040518060a001604052806040518060400160405280600381526020017f4d616e000000000000000000000000000000000000000000000000000000000081525081526020016040518060400160405280600681526020017f467269656e64000000000000000000000000000000000000000000000000000081525081526020016040518060400160405280600581526020017f427564647900000000000000000000000000000000000000000000000000000081525081526020016040518060400160405280600681526020017f4d6973746572000000000000000000000000000000000000000000000000000081525081526020016040518060400160405280600481526020017f4d69737300000000000000000000000000000000000000000000000000000000815250815250600c906005620004a792919062000924565b506040518060e001604052806040518060400160405280600381526020017f726564000000000000000000000000000000000000000000000000000000000081525081526020016040518060400160405280600581526020017f626c61636b00000000000000000000000000000000000000000000000000000081525081526020016040518060400160405280600481526020017f626c75650000000000000000000000000000000000000000000000000000000081525081526020016040518060400160405280600681526020017f6f72616e6765000000000000000000000000000000000000000000000000000081525081526020016040518060400160405280600481526020017f70696e6b0000000000000000000000000000000000000000000000000000000081525081526020016040518060400160405280600581526020017f677265656e00000000000000000000000000000000000000000000000000000081525081526020016040518060400160405280600781526020017f2330384332413800000000000000000000000000000000000000000000000000815250815250600d906007620006609291906200098b565b503480156200066e57600080fd5b506040518060400160405280600981526020017f5371756172654e465400000000000000000000000000000000000000000000008152506040518060400160405280600681526020017f53515541524500000000000000000000000000000000000000000000000000008152508160009080519060200190620006f39291906200082c565b5080600190805190602001906200070c9291906200082c565b5050506200075a6040518060400160405280601f81526020017f4d79206669727374204e465420636f6e747261637421205472616c616c6121008152506200076060201b620013db1760201c565b62000bac565b620008008160405160240162000777919062000ac0565b6040516020818303038152906040527f41304fac000000000000000000000000000000000000000000000000000000007bffffffffffffffffffffffffffffffffffffffffffffffffffffffff19166020820180517bffffffffffffffffffffffffffffffffffffffffffffffffffffffff83818316178352505050506200080360201b60201c565b50565b60008151905060006a636f6e736f6c652e6c6f679050602083016000808483855afa5050505050565b8280546200083a9062000b36565b90600052602060002090601f0160209004810192826200085e5760008555620008aa565b82601f106200087957805160ff1916838001178555620008aa565b82800160010185558215620008aa579182015b82811115620008a95782518255916020019190600101906200088c565b5b509050620008b99190620009f2565b5090565b82805482825590600052602060002090810192821562000911579160200282015b8281111562000910578251829080519060200190620008ff9291906200082c565b5091602001919060010190620008de565b5b50905062000920919062000a11565b5090565b82805482825590600052602060002090810192821562000978579160200282015b8281111562000977578251829080519060200190620009669291906200082c565b509160200191906001019062000945565b5b50905062000987919062000a11565b5090565b828054828255906000526020600020908101928215620009df579160200282015b82811115620009de578251829080519060200190620009cd9291906200082c565b5091602001919060010190620009ac565b5b509050620009ee919062000a11565b5090565b5b8082111562000a0d576000816000905550600101620009f3565b5090565b5b8082111562000a35576000818162000a2b919062000a39565b5060010162000a12565b5090565b50805462000a479062000b36565b6000825580601f1062000a5b575062000a7c565b601f01602090049060005260206000209081019062000a7b9190620009f2565b5b50565b600062000a8c8262000ae4565b62000a98818562000aef565b935062000aaa81856020860162000b00565b62000ab58162000b9b565b840191505092915050565b6000602082019050818103600083015262000adc818462000a7f565b905092915050565b600081519050919050565b600082825260208201905092915050565b60005b8381101562000b2057808201518184015260208101905062000b03565b8381111562000b30576000848401525b50505050565b6000600282049050600182168062000b4f57607f821691505b6020821081141562000b665762000b6562000b6c565b5b50919050565b7f4e487b7100000000000000000000000000000000000000000000000000000000600052602260045260246000fd5b6000601f19601f8301169050919050565b613a708062000bbc6000396000f3fe608060405234801561001057600080fd5b50600436106101215760003560e01c806370a08231116100ad578063b88d4fde11610071578063b88d4fde14610340578063c575757a1461035c578063c87b56dd1461038c578063de9d132f146103bc578063e985e9c5146103c657610121565b806370a082311461028857806395d89b41146102b8578063a22cb465146102d6578063b187301f146102f2578063b4c3b8be1461032257610121565b806323b872dd116100f457806323b872dd146101c05780632de38d68146101dc57806342842e0e1461020c578063514dc8c6146102285780636352211e1461025857610121565b806301ffc9a71461012657806306fdde0314610156578063081812fc14610174578063095ea7b3146101a4575b600080fd5b610140600480360381019061013b919061266e565b6103f6565b60405161014d91906132e6565b60405180910390f35b61015e6104d8565b60405161016b9190613301565b60405180910390f35b61018e600480360381019061018991906126c0565b61056a565b60405161019b9190613256565b60405180910390f35b6101be60048036038101906101b99190612632565b6105ef565b005b6101da60048036038101906101d5919061252c565b610707565b005b6101f660048036038101906101f191906126c0565b610767565b6040516102039190613301565b60405180910390f35b6102266004803603810190610221919061252c565b610885565b005b610242600480360381019061023d91906126c0565b6108a5565b60405161024f9190613301565b60405180910390f35b610272600480360381019061026d91906126c0565b6109c3565b60405161027f9190613256565b60405180910390f35b6102a2600480360381019061029d91906124c7565b610a75565b6040516102af9190613561565b60405180910390f35b6102c0610b2d565b6040516102cd9190613301565b60405180910390f35b6102f060048036038101906102eb91906125f6565b610bbf565b005b61030c600480360381019061030791906126c0565b610d40565b6040516103199190613301565b60405180910390f35b61032a610e5e565b6040516103379190613561565b60405180910390f35b61035a6004803603810190610355919061257b565b610e7b565b005b610376600480360381019061037191906126c0565b610edd565b6040516103839190613301565b60405180910390f35b6103a660048036038101906103a191906126c0565b610ffb565b6040516103b39190613301565b60405180910390f35b6103c461114d565b005b6103e060048036038101906103db91906124f0565b611347565b6040516103ed91906132e6565b60405180910390f35b60007f80ac58cd000000000000000000000000000000000000000000000000000000007bffffffffffffffffffffffffffffffffffffffffffffffffffffffff1916827bffffffffffffffffffffffffffffffffffffffffffffffffffffffff191614806104c157507f5b5e139f000000000000000000000000000000000000000000000000000000007bffffffffffffffffffffffffffffffffffffffffffffffffffffffff1916827bffffffffffffffffffffffffffffffffffffffffffffffffffffffff1916145b806104d157506104d082611474565b5b9050919050565b6060600080546104e790613800565b80601f016020809104026020016040519081016040528092919081815260200182805461051390613800565b80156105605780601f1061053557610100808354040283529160200191610560565b820191906000526020600020905b81548152906001019060200180831161054357829003601f168201915b5050505050905090565b6000610575826114de565b6105b4576040517f08c379a00000000000000000000000000000000000000000000000000000000081526004016105ab906134c1565b60405180910390fd5b6004600083815260200190815260200160002060009054906101000a900473ffffffffffffffffffffffffffffffffffffffff169050919050565b60006105fa826109c3565b90508073ffffffffffffffffffffffffffffffffffffffff168373ffffffffffffffffffffffffffffffffffffffff16141561066b576040517f08c379a000000000000000000000000000000000000000000000000000000000815260040161066290613521565b60405180910390fd5b8073ffffffffffffffffffffffffffffffffffffffff1661068a61154a565b73ffffffffffffffffffffffffffffffffffffffff1614806106b957506106b8816106b361154a565b611347565b5b6106f8576040517f08c379a00000000000000000000000000000000000000000000000000000000081526004016106ef90613401565b60405180910390fd5b6107028383611552565b505050565b61071861071261154a565b8261160b565b610757576040517f08c379a000000000000000000000000000000000000000000000000000000000815260040161074e90613541565b60405180910390fd5b6107628383836116e9565b505050565b6060600061079b61077784611945565b60405160200161078791906131f0565b604051602081830303815290604052611af2565b9050600a80549050816107ae919061387b565b9050600a81815481106107ea577f4e487b7100000000000000000000000000000000000000000000000000000000600052603260045260246000fd5b9060005260206000200180546107ff90613800565b80601f016020809104026020016040519081016040528092919081815260200182805461082b90613800565b80156108785780601f1061084d57610100808354040283529160200191610878565b820191906000526020600020905b81548152906001019060200180831161085b57829003601f168201915b5050505050915050919050565b6108a083838360405180602001604052806000815250610e7b565b505050565b606060006108d96108b584611945565b6040516020016108c59190613234565b604051602081830303815290604052611af2565b9050600d80549050816108ec919061387b565b9050600d8181548110610928577f4e487b7100000000000000000000000000000000000000000000000000000000600052603260045260246000fd5b90600052602060002001805461093d90613800565b80601f016020809104026020016040519081016040528092919081815260200182805461096990613800565b80156109b65780601f1061098b576101008083540402835291602001916109b6565b820191906000526020600020905b81548152906001019060200180831161099957829003601f168201915b5050505050915050919050565b6000806002600084815260200190815260200160002060009054906101000a900473ffffffffffffffffffffffffffffffffffffffff169050600073ffffffffffffffffffffffffffffffffffffffff168173ffffffffffffffffffffffffffffffffffffffff161415610a6c576040517f08c379a0000000000000000000000000000000000000000000000000000000008152600401610a6390613441565b60405180910390fd5b80915050919050565b60008073ffffffffffffffffffffffffffffffffffffffff168273ffffffffffffffffffffffffffffffffffffffff161415610ae6576040517f08c379a0000000000000000000000000000000000000000000000000000000008152600401610add90613421565b60405180910390fd5b600360008373ffffffffffffffffffffffffffffffffffffffff1673ffffffffffffffffffffffffffffffffffffffff168152602001908152602001600020549050919050565b606060018054610b3c90613800565b80601f0160208091040260200160405190810160405280929190818152602001828054610b6890613800565b8015610bb55780601f10610b8a57610100808354040283529160200191610bb5565b820191906000526020600020905b815481529060010190602001808311610b9857829003601f168201915b5050505050905090565b610bc761154a565b73ffffffffffffffffffffffffffffffffffffffff168273ffffffffffffffffffffffffffffffffffffffff161415610c35576040517f08c379a0000000000000000000000000000000000000000000000000000000008152600401610c2c906133c1565b60405180910390fd5b8060056000610c4261154a565b73ffffffffffffffffffffffffffffffffffffffff1673ffffffffffffffffffffffffffffffffffffffff16815260200190815260200160002060008473ffffffffffffffffffffffffffffffffffffffff1673ffffffffffffffffffffffffffffffffffffffff16815260200190815260200160002060006101000a81548160ff0219169083151502179055508173ffffffffffffffffffffffffffffffffffffffff16610cef61154a565b73ffffffffffffffffffffffffffffffffffffffff167f17307eab39ab6107e8899845ad3d59bd9653f200f220920489ca2b5937696c3183604051610d3491906132e6565b60405180910390a35050565b60606000610d74610d5084611945565b604051602001610d609190613189565b604051602081830303815290604052611af2565b9050600b8054905081610d87919061387b565b9050600b8181548110610dc3577f4e487b7100000000000000000000000000000000000000000000000000000000600052603260045260246000fd5b906000526020600020018054610dd890613800565b80601f0160208091040260200160405190810160405280929190818152602001828054610e0490613800565b8015610e515780601f10610e2657610100808354040283529160200191610e51565b820191906000526020600020905b815481529060010190602001808311610e3457829003601f168201915b5050505050915050919050565b60006001610e6c6007611b25565b610e769190613716565b905090565b610e8c610e8661154a565b8361160b565b610ecb576040517f08c379a0000000000000000000000000000000000000000000000000000000008152600401610ec290613541565b60405180910390fd5b610ed784848484611b33565b50505050565b60606000610f11610eed84611945565b604051602001610efd9190613167565b604051602081830303815290604052611af2565b9050600c8054905081610f24919061387b565b9050600c8181548110610f60577f4e487b7100000000000000000000000000000000000000000000000000000000600052603260045260246000fd5b906000526020600020018054610f7590613800565b80601f0160208091040260200160405190810160405280929190818152602001828054610fa190613800565b8015610fee5780601f10610fc357610100808354040283529160200191610fee565b820191906000526020600020905b815481529060010190602001808311610fd157829003601f168201915b5050505050915050919050565b6060611006826114de565b611045576040517f08c379a000000000000000000000000000000000000000000000000000000000815260040161103c906134a1565b60405180910390fd5b600060066000848152602001908152602001600020805461106590613800565b80601f016020809104026020016040519081016040528092919081815260200182805461109190613800565b80156110de5780601f106110b3576101008083540402835291602001916110de565b820191906000526020600020905b8154815290600101906020018083116110c157829003601f168201915b5050505050905060006110ef611b8f565b9050600081511415611105578192505050611148565b60008251111561113a5780826040516020016111229291906130c9565b60405160208183030381529060405292505050611148565b61114384611ba6565b925050505b919050565b60006111596007611b25565b9050600061116682610767565b9050600061117383610d40565b9050600061118084610edd565b90506000838383604051602001611199939291906130ed565b604051602081830303815290604052905060006111b5866108a5565b905060006008826009856040516020016111d2949392919061311e565b60405160208183030381529060405290506000611217846111f284611c4d565b6040516020016112039291906131ab565b604051602081830303815290604052611c4d565b905060008160405160200161122c9190613212565b604051602081830303815290604052905061127b6040518060400160405280601581526020017f0a2d2d2d2d2d2d2d2d2d2d2d2d2d2d2d2d2d2d2d2d00000000000000000000008152506113db565b611284816113db565b6112c26040518060400160405280601581526020017f2d2d2d2d2d2d2d2d2d2d2d2d2d2d2d2d2d2d2d2d0a00000000000000000000008152506113db565b6112cc338a611e0b565b6112d68982611e29565b6112f96040518060600160405280602581526020016139d6602591398a33611e9d565b6113036007611f3c565b7febb98688741ffa4c7589bf325de30cf7becb63de567842e1ccdb6cb949fdc82c338a6040516113349291906132bd565b60405180910390a1505050505050505050565b6000600560008473ffffffffffffffffffffffffffffffffffffffff1673ffffffffffffffffffffffffffffffffffffffff16815260200190815260200160002060008373ffffffffffffffffffffffffffffffffffffffff1673ffffffffffffffffffffffffffffffffffffffff16815260200190815260200160002060009054906101000a900460ff16905092915050565b611471816040516024016113ef9190613301565b6040516020818303038152906040527f41304fac000000000000000000000000000000000000000000000000000000007bffffffffffffffffffffffffffffffffffffffffffffffffffffffff19166020820180517bffffffffffffffffffffffffffffffffffffffffffffffffffffffff8381831617835250505050611f52565b50565b60007f01ffc9a7000000000000000000000000000000000000000000000000000000007bffffffffffffffffffffffffffffffffffffffffffffffffffffffff1916827bffffffffffffffffffffffffffffffffffffffffffffffffffffffff1916149050919050565b60008073ffffffffffffffffffffffffffffffffffffffff166002600084815260200190815260200160002060009054906101000a900473ffffffffffffffffffffffffffffffffffffffff1673ffffffffffffffffffffffffffffffffffffffff1614159050919050565b600033905090565b816004600083815260200190815260200160002060006101000a81548173ffffffffffffffffffffffffffffffffffffffff021916908373ffffffffffffffffffffffffffffffffffffffff160217905550808273ffffffffffffffffffffffffffffffffffffffff166115c5836109c3565b73ffffffffffffffffffffffffffffffffffffffff167f8c5be1e5ebec7d5bd14f71427d1e84f3dd0314c0f7b2291e5b200ac8c7c3b92560405160405180910390a45050565b6000611616826114de565b611655576040517f08c379a000000000000000000000000000000000000000000000000000000000815260040161164c906133e1565b60405180910390fd5b6000611660836109c3565b90508073ffffffffffffffffffffffffffffffffffffffff168473ffffffffffffffffffffffffffffffffffffffff1614806116cf57508373ffffffffffffffffffffffffffffffffffffffff166116b78461056a565b73ffffffffffffffffffffffffffffffffffffffff16145b806116e057506116df8185611347565b5b91505092915050565b8273ffffffffffffffffffffffffffffffffffffffff16611709826109c3565b73ffffffffffffffffffffffffffffffffffffffff161461175f576040517f08c379a0000000000000000000000000000000000000000000000000000000008152600401611756906134e1565b60405180910390fd5b600073ffffffffffffffffffffffffffffffffffffffff168273ffffffffffffffffffffffffffffffffffffffff1614156117cf576040517f08c379a00000000000000000000000000000000000000000000000000000000081526004016117c6906133a1565b60405180910390fd5b6117da838383611f7b565b6117e5600082611552565b6001600360008573ffffffffffffffffffffffffffffffffffffffff1673ffffffffffffffffffffffffffffffffffffffff16815260200190815260200160002060008282546118359190613716565b925050819055506001600360008473ffffffffffffffffffffffffffffffffffffffff1673ffffffffffffffffffffffffffffffffffffffff168152602001908152602001600020600082825461188c9190613635565b92505081905550816002600083815260200190815260200160002060006101000a81548173ffffffffffffffffffffffffffffffffffffffff021916908373ffffffffffffffffffffffffffffffffffffffff160217905550808273ffffffffffffffffffffffffffffffffffffffff168473ffffffffffffffffffffffffffffffffffffffff167fddf252ad1be2c89b69c2b068fc378daa952ba7f163c4a11628f55a4df523b3ef60405160405180910390a4505050565b6060600082141561198d576040518060400160405280600181526020017f30000000000000000000000000000000000000000000000000000000000000008152509050611aed565b600082905060005b600082146119bf5780806119a890613832565b915050600a826119b8919061368b565b9150611995565b60008167ffffffffffffffff811115611a01577f4e487b7100000000000000000000000000000000000000000000000000000000600052604160045260246000fd5b6040519080825280601f01601f191660200182016040528015611a335781602001600182028036833780820191505090505b5090505b60008514611ae657600182611a4c9190613716565b9150600a85611a5b919061387b565b6030611a679190613635565b60f81b818381518110611aa3577f4e487b7100000000000000000000000000000000000000000000000000000000600052603260045260246000fd5b60200101907effffffffffffffffffffffffffffffffffffffffffffffffffffffffffffff1916908160001a905350600a85611adf919061368b565b9450611a37565b8093505050505b919050565b600081604051602001611b0591906130b2565b6040516020818303038152906040528051906020012060001c9050919050565b600081600001549050919050565b611b3e8484846116e9565b611b4a84848484611f80565b611b89576040517f08c379a0000000000000000000000000000000000000000000000000000000008152600401611b8090613361565b60405180910390fd5b50505050565b606060405180602001604052806000815250905090565b6060611bb1826114de565b611bf0576040517f08c379a0000000000000000000000000000000000000000000000000000000008152600401611be790613501565b60405180910390fd5b6000611bfa611b8f565b90506000815111611c1a5760405180602001604052806000815250611c45565b80611c2484611945565b604051602001611c359291906130c9565b6040516020818303038152906040525b915050919050565b60606000825190506000811415611c765760405180602001604052806000815250915050611e06565b60006003600283611c879190613635565b611c91919061368b565b6004611c9d91906136bc565b90506000602082611cae9190613635565b67ffffffffffffffff811115611ced577f4e487b7100000000000000000000000000000000000000000000000000000000600052604160045260246000fd5b6040519080825280601f01601f191660200182016040528015611d1f5781602001600182028036833780820191505090505b50905060006040518060600160405280604081526020016139fb604091399050600181016020830160005b86811015611dc35760038101905062ffffff818a015116603f8160121c168401518060081b905060ff603f83600c1c1686015116810190508060081b905060ff603f8360061c1686015116810190508060081b905060ff603f831686015116810190508060e01b90508084526004840193505050611d4a565b506003860660018114611ddd5760028114611ded57611df8565b613d3d60f01b6002830352611df8565b603d60f81b60018303525b508484525050819450505050505b919050565b611e25828260405180602001604052806000815250612117565b5050565b611e32826114de565b611e71576040517f08c379a0000000000000000000000000000000000000000000000000000000008152600401611e6890613461565b60405180910390fd5b80600660008481526020019081526020016000209080519060200190611e98929190612353565b505050565b611f37838383604051602401611eb593929190613323565b6040516020818303038152906040527fe3849f79000000000000000000000000000000000000000000000000000000007bffffffffffffffffffffffffffffffffffffffffffffffffffffffff19166020820180517bffffffffffffffffffffffffffffffffffffffffffffffffffffffff8381831617835250505050611f52565b505050565b6001816000016000828254019250508190555050565b60008151905060006a636f6e736f6c652e6c6f679050602083016000808483855afa5050505050565b505050565b6000611fa18473ffffffffffffffffffffffffffffffffffffffff16612172565b1561210a578373ffffffffffffffffffffffffffffffffffffffff1663150b7a02611fca61154a565b8786866040518563ffffffff1660e01b8152600401611fec9493929190613271565b602060405180830381600087803b15801561200657600080fd5b505af192505050801561203757506040513d601f19601f820116820180604052508101906120349190612697565b60015b6120ba573d8060008114612067576040519150601f19603f3d011682016040523d82523d6000602084013e61206c565b606091505b506000815114156120b2576040517f08c379a00000000000000000000000000000000000000000000000000000000081526004016120a990613361565b60405180910390fd5b805181602001fd5b63150b7a0260e01b7bffffffffffffffffffffffffffffffffffffffffffffffffffffffff1916817bffffffffffffffffffffffffffffffffffffffffffffffffffffffff19161491505061210f565b600190505b949350505050565b6121218383612185565b61212e6000848484611f80565b61216d576040517f08c379a000000000000000000000000000000000000000000000000000000000815260040161216490613361565b60405180910390fd5b505050565b600080823b905060008111915050919050565b600073ffffffffffffffffffffffffffffffffffffffff168273ffffffffffffffffffffffffffffffffffffffff1614156121f5576040517f08c379a00000000000000000000000000000000000000000000000000000000081526004016121ec90613481565b60405180910390fd5b6121fe816114de565b1561223e576040517f08c379a000000000000000000000000000000000000000000000000000000000815260040161223590613381565b60405180910390fd5b61224a60008383611f7b565b6001600360008473ffffffffffffffffffffffffffffffffffffffff1673ffffffffffffffffffffffffffffffffffffffff168152602001908152602001600020600082825461229a9190613635565b92505081905550816002600083815260200190815260200160002060006101000a81548173ffffffffffffffffffffffffffffffffffffffff021916908373ffffffffffffffffffffffffffffffffffffffff160217905550808273ffffffffffffffffffffffffffffffffffffffff16600073ffffffffffffffffffffffffffffffffffffffff167fddf252ad1be2c89b69c2b068fc378daa952ba7f163c4a11628f55a4df523b3ef60405160405180910390a45050565b82805461235f90613800565b90600052602060002090601f01602090048101928261238157600085556123c8565b82601f1061239a57805160ff19168380011785556123c8565b828001600101855582156123c8579182015b828111156123c75782518255916020019190600101906123ac565b5b5090506123d591906123d9565b5090565b5b808211156123f25760008160009055506001016123da565b5090565b6000612409612404846135ad565b61357c565b90508281526020810184848401111561242157600080fd5b61242c8482856137be565b509392505050565b60008135905061244381613979565b92915050565b60008135905061245881613990565b92915050565b60008135905061246d816139a7565b92915050565b600081519050612482816139a7565b92915050565b600082601f83011261249957600080fd5b81356124a98482602086016123f6565b91505092915050565b6000813590506124c1816139be565b92915050565b6000602082840312156124d957600080fd5b60006124e784828501612434565b91505092915050565b6000806040838503121561250357600080fd5b600061251185828601612434565b925050602061252285828601612434565b9150509250929050565b60008060006060848603121561254157600080fd5b600061254f86828701612434565b935050602061256086828701612434565b9250506040612571868287016124b2565b9150509250925092565b6000806000806080858703121561259157600080fd5b600061259f87828801612434565b94505060206125b087828801612434565b93505060406125c1878288016124b2565b925050606085013567ffffffffffffffff8111156125de57600080fd5b6125ea87828801612488565b91505092959194509250565b6000806040838503121561260957600080fd5b600061261785828601612434565b925050602061262885828601612449565b9150509250929050565b6000806040838503121561264557600080fd5b600061265385828601612434565b9250506020612664858286016124b2565b9150509250929050565b60006020828403121561268057600080fd5b600061268e8482850161245e565b91505092915050565b6000602082840312156126a957600080fd5b60006126b784828501612473565b91505092915050565b6000602082840312156126d257600080fd5b60006126e0848285016124b2565b91505092915050565b6126f28161374a565b82525050565b6127018161375c565b82525050565b6000612712826135f2565b61271c8185613608565b935061272c8185602086016137cd565b61273581613968565b840191505092915050565b600061274b826135fd565b6127558185613619565b93506127658185602086016137cd565b61276e81613968565b840191505092915050565b6000612784826135fd565b61278e818561362a565b935061279e8185602086016137cd565b80840191505092915050565b600081546127b781613800565b6127c1818661362a565b945060018216600081146127dc57600181146127ed57612820565b60ff19831686528186019350612820565b6127f6856135dd565b60005b83811015612818578154818901526001820191506020810190506127f9565b838801955050505b50505092915050565b6000612836603283613619565b91507f4552433732313a207472616e7366657220746f206e6f6e20455243373231526560008301527f63656976657220696d706c656d656e74657200000000000000000000000000006020830152604082019050919050565b600061289c601c83613619565b91507f4552433732313a20746f6b656e20616c7265616479206d696e746564000000006000830152602082019050919050565b60006128dc600a8361362a565b91507f54484952445f574f5244000000000000000000000000000000000000000000006000830152600a82019050919050565b600061291c602483613619565b91507f4552433732313a207472616e7366657220746f20746865207a65726f2061646460008301527f72657373000000000000000000000000000000000000000000000000000000006020830152604082019050919050565b6000612982601983613619565b91507f4552433732313a20617070726f766520746f2063616c6c6572000000000000006000830152602082019050919050565b60006129c2600b8361362a565b91507f5345434f4e445f574f52440000000000000000000000000000000000000000006000830152600b82019050919050565b6000612a02602c83613619565b91507f4552433732313a206f70657261746f7220717565727920666f72206e6f6e657860008301527f697374656e7420746f6b656e00000000000000000000000000000000000000006020830152604082019050919050565b6000612a68600d8361362a565b91507f3c2f746578743e3c2f7376673e000000000000000000000000000000000000006000830152600d82019050919050565b6000612aa8603883613619565b91507f4552433732313a20617070726f76652063616c6c6572206973206e6f74206f7760008301527f6e6572206e6f7220617070726f76656420666f7220616c6c00000000000000006020830152604082019050919050565b6000612b0e602a83613619565b91507f4552433732313a2062616c616e636520717565727920666f7220746865207a6560008301527f726f2061646472657373000000000000000000000000000000000000000000006020830152604082019050919050565b6000612b74602983613619565b91507f4552433732313a206f776e657220717565727920666f72206e6f6e657869737460008301527f656e7420746f6b656e00000000000000000000000000000000000000000000006020830152604082019050919050565b6000612bda602e83613619565b91507f45524337323155524953746f726167653a2055524920736574206f66206e6f6e60008301527f6578697374656e7420746f6b656e0000000000000000000000000000000000006020830152604082019050919050565b6000612c4060028361362a565b91507f227d0000000000000000000000000000000000000000000000000000000000006000830152600282019050919050565b6000612c80602083613619565b91507f4552433732313a206d696e7420746f20746865207a65726f20616464726573736000830152602082019050919050565b6000612cc0603183613619565b91507f45524337323155524953746f726167653a2055524920717565727920666f722060008301527f6e6f6e6578697374656e7420746f6b656e0000000000000000000000000000006020830152604082019050919050565b6000612d26602c83613619565b91507f4552433732313a20617070726f76656420717565727920666f72206e6f6e657860008301527f697374656e7420746f6b656e00000000000000000000000000000000000000006020830152604082019050919050565b6000612d8c602983613619565b91507f4552433732313a207472616e73666572206f6620746f6b656e2074686174206960008301527f73206e6f74206f776e00000000000000000000000000000000000000000000006020830152604082019050919050565b6000612df2602f83613619565b91507f4552433732314d657461646174613a2055524920717565727920666f72206e6f60008301527f6e6578697374656e7420746f6b656e00000000000000000000000000000000006020830152604082019050919050565b6000612e58600a8361362a565b91507f7b226e616d65223a2022000000000000000000000000000000000000000000006000830152600a82019050919050565b6000612e9860488361362a565b91507f222c20226465736372697074696f6e223a20224c65204e465473206f66206d6560008301527f21222c2022696d616765223a2022646174613a696d6167652f7376672b786d6c60208301527f3b6261736536342c0000000000000000000000000000000000000000000000006040830152604882019050919050565b6000612f24602183613619565b91507f4552433732313a20617070726f76616c20746f2063757272656e74206f776e6560008301527f72000000000000000000000000000000000000000000000000000000000000006020830152604082019050919050565b6000612f8a600a8361362a565b91507f46495253545f574f5244000000000000000000000000000000000000000000006000830152600a82019050919050565b6000612fca601d8361362a565b91507f646174613a6170706c69636174696f6e2f6a736f6e3b6261736536342c0000006000830152601d82019050919050565b600061300a603183613619565b91507f4552433732313a207472616e736665722063616c6c6572206973206e6f74206f60008301527f776e6572206e6f7220617070726f7665640000000000000000000000000000006020830152604082019050919050565b600061307060058361362a565b91507f434f4c4f520000000000000000000000000000000000000000000000000000006000830152600582019050919050565b6130ac816137b4565b82525050565b60006130be8284612779565b915081905092915050565b60006130d58285612779565b91506130e18284612779565b91508190509392505050565b60006130f98286612779565b91506131058285612779565b91506131118284612779565b9150819050949350505050565b600061312a82876127aa565b91506131368286612779565b915061314282856127aa565b915061314e8284612779565b915061315982612a5b565b915081905095945050505050565b6000613172826128cf565b915061317e8284612779565b915081905092915050565b6000613194826129b5565b91506131a08284612779565b915081905092915050565b60006131b682612e4b565b91506131c28285612779565b91506131cd82612e8b565b91506131d98284612779565b91506131e482612c33565b91508190509392505050565b60006131fb82612f7d565b91506132078284612779565b915081905092915050565b600061321d82612fbd565b91506132298284612779565b915081905092915050565b600061323f82613063565b915061324b8284612779565b915081905092915050565b600060208201905061326b60008301846126e9565b92915050565b600060808201905061328660008301876126e9565b61329360208301866126e9565b6132a060408301856130a3565b81810360608301526132b28184612707565b905095945050505050565b60006040820190506132d260008301856126e9565b6132df60208301846130a3565b9392505050565b60006020820190506132fb60008301846126f8565b92915050565b6000602082019050818103600083015261331b8184612740565b905092915050565b6000606082019050818103600083015261333d8186612740565b905061334c60208301856130a3565b61335960408301846126e9565b949350505050565b6000602082019050818103600083015261337a81612829565b9050919050565b6000602082019050818103600083015261339a8161288f565b9050919050565b600060208201905081810360008301526133ba8161290f565b9050919050565b600060208201905081810360008301526133da81612975565b9050919050565b600060208201905081810360008301526133fa816129f5565b9050919050565b6000602082019050818103600083015261341a81612a9b565b9050919050565b6000602082019050818103600083015261343a81612b01565b9050919050565b6000602082019050818103600083015261345a81612b67565b9050919050565b6000602082019050818103600083015261347a81612bcd565b9050919050565b6000602082019050818103600083015261349a81612c73565b9050919050565b600060208201905081810360008301526134ba81612cb3565b9050919050565b600060208201905081810360008301526134da81612d19565b9050919050565b600060208201905081810360008301526134fa81612d7f565b9050919050565b6000602082019050818103600083015261351a81612de5565b9050919050565b6000602082019050818103600083015261353a81612f17565b9050919050565b6000602082019050818103600083015261355a81612ffd565b9050919050565b600060208201905061357660008301846130a3565b92915050565b6000604051905081810181811067ffffffffffffffff821117156135a3576135a2613939565b5b8060405250919050565b600067ffffffffffffffff8211156135c8576135c7613939565b5b601f19601f8301169050602081019050919050565b60008190508160005260206000209050919050565b600081519050919050565b600081519050919050565b600082825260208201905092915050565b600082825260208201905092915050565b600081905092915050565b6000613640826137b4565b915061364b836137b4565b9250827fffffffffffffffffffffffffffffffffffffffffffffffffffffffffffffffff038211156136805761367f6138ac565b5b828201905092915050565b6000613696826137b4565b91506136a1836137b4565b9250826136b1576136b06138db565b5b828204905092915050565b60006136c7826137b4565b91506136d2836137b4565b9250817fffffffffffffffffffffffffffffffffffffffffffffffffffffffffffffffff048311821515161561370b5761370a6138ac565b5b828202905092915050565b6000613721826137b4565b915061372c836137b4565b92508282101561373f5761373e6138ac565b5b828203905092915050565b600061375582613794565b9050919050565b60008115159050919050565b60007fffffffff0000000000000000000000000000000000000000000000000000000082169050919050565b600073ffffffffffffffffffffffffffffffffffffffff82169050919050565b6000819050919050565b82818337600083830152505050565b60005b838110156137eb5780820151818401526020810190506137d0565b838111156137fa576000848401525b50505050565b6000600282049050600182168061381857607f821691505b6020821081141561382c5761382b61390a565b5b50919050565b600061383d826137b4565b91507fffffffffffffffffffffffffffffffffffffffffffffffffffffffffffffffff8214156138705761386f6138ac565b5b600182019050919050565b6000613886826137b4565b9150613891836137b4565b9250826138a1576138a06138db565b5b828206905092915050565b7f4e487b7100000000000000000000000000000000000000000000000000000000600052601160045260246000fd5b7f4e487b7100000000000000000000000000000000000000000000000000000000600052601260045260246000fd5b7f4e487b7100000000000000000000000000000000000000000000000000000000600052602260045260246000fd5b7f4e487b7100000000000000000000000000000000000000000000000000000000600052604160045260246000fd5b6000601f19601f8301169050919050565b6139828161374a565b811461398d57600080fd5b50565b6139998161375c565b81146139a457600080fd5b50565b6139b081613768565b81146139bb57600080fd5b50565b6139c7816137b4565b81146139d257600080fd5b5056fe416e204e465420772f20494420257320686173206265656e206d696e74656420746f2025734142434445464748494a4b4c4d4e4f505152535455565758595a6162636465666768696a6b6c6d6e6f707172737475767778797a303132333435363738392b2fa2646970667358221220ec7acd278bfefa589fa6a60fd22a2f2a458fd70c060804b431a5b0115152b2fa64736f6c634300080000333c73766720786d6c6e733d27687474703a2f2f7777772e77332e6f72672f323030302f73766727207072657365727665417370656374526174696f3d27784d696e594d696e206d656574272076696577426f783d273020302033353020333530273e3c7374796c653e2e62617365207b2066696c6c3a2077686974653b20666f6e742d66616d696c793a2073657269663b20666f6e742d73697a653a20323470783b207d3c2f7374796c653e3c726563742077696474683d273130302527206865696768743d2731303025272066696c6c3d27272f3e3c7465787420783d273530252720793d273530252720636c6173733d27626173652720646f6d696e616e742d626173656c696e653d276d6964646c652720746578742d616e63686f723d276d6964646c65273e",
  "linkReferences": {},
  "deployedLinkReferences": {}
}